{
  "_format": "hh-sol-artifact-1",
  "contractName": "Royalty",
  "sourceName": "contracts/Royalty.sol",
  "abi": [
    {
      "inputs": [
        {
          "internalType": "address",
          "name": "collection",
          "type": "address"
        },
        {
          "internalType": "uint256",
          "name": "tokenId",
          "type": "uint256"
        },
        {
          "internalType": "uint256",
          "name": "value",
          "type": "uint256"
        }
      ],
      "name": "get",
      "outputs": [
        {
          "internalType": "address",
          "name": "",
          "type": "address"
        },
        {
          "internalType": "uint256",
          "name": "",
          "type": "uint256"
        }
      ],
      "stateMutability": "view",
      "type": "function"
    }
  ],
  "bytecode": "0x608060405234801561001057600080fd5b506102d3806100206000396000f3fe608060405234801561001057600080fd5b506004361061002b5760003560e01c80631941472a14610030575b600080fd5b61004a600480360381019061004591906100b4565b610061565b604051610058929190610121565b60405180910390f35b60008084600a600385610074919061017b565b61007e919061014a565b91509150935093915050565b6000813590506100998161026f565b92915050565b6000813590506100ae81610286565b92915050565b6000806000606084860312156100c957600080fd5b60006100d78682870161008a565b93505060206100e88682870161009f565b92505060406100f98682870161009f565b9150509250925092565b61010c816101d5565b82525050565b61011b81610207565b82525050565b60006040820190506101366000830185610103565b6101436020830184610112565b9392505050565b600061015582610207565b915061016083610207565b9250826101705761016f610240565b5b828204905092915050565b600061018682610207565b915061019183610207565b9250817fffffffffffffffffffffffffffffffffffffffffffffffffffffffffffffffff04831182151516156101ca576101c9610211565b5b828202905092915050565b60006101e0826101e7565b9050919050565b600073ffffffffffffffffffffffffffffffffffffffff82169050919050565b6000819050919050565b7f4e487b7100000000000000000000000000000000000000000000000000000000600052601160045260246000fd5b7f4e487b7100000000000000000000000000000000000000000000000000000000600052601260045260246000fd5b610278816101d5565b811461028357600080fd5b50565b61028f81610207565b811461029a57600080fd5b5056fea2646970667358221220f283956d6db79e54a47bf4814d944eaa7174e98057b6454612f4da89dd28ae9f64736f6c63430008040033",
  "linkReferences": {},
  "deployedLinkReferences": {}
}