{
  "_format": "hh-sol-artifact-1",
  "contractName": "Minter",
  "sourceName": "contracts/Minter.sol",
  "abi": [
    {
      "inputs": [],
      "stateMutability": "nonpayable",
      "type": "constructor"
    },
    {
      "anonymous": false,
      "inputs": [
        {
          "indexed": true,
          "internalType": "address",
          "name": "owner",
          "type": "address"
        },
        {
          "indexed": true,
          "internalType": "address",
          "name": "approved",
          "type": "address"
        },
        {
          "indexed": true,
          "internalType": "uint256",
          "name": "tokenId",
          "type": "uint256"
        }
      ],
      "name": "Approval",
      "type": "event"
    },
    {
      "anonymous": false,
      "inputs": [
        {
          "indexed": true,
          "internalType": "address",
          "name": "owner",
          "type": "address"
        },
        {
          "indexed": true,
          "internalType": "address",
          "name": "operator",
          "type": "address"
        },
        {
          "indexed": false,
          "internalType": "bool",
          "name": "approved",
          "type": "bool"
        }
      ],
      "name": "ApprovalForAll",
      "type": "event"
    },
    {
      "anonymous": false,
      "inputs": [
        {
          "indexed": true,
          "internalType": "address",
          "name": "from",
          "type": "address"
        },
        {
          "indexed": true,
          "internalType": "address",
          "name": "to",
          "type": "address"
        },
        {
          "indexed": true,
          "internalType": "uint256",
          "name": "tokenId",
          "type": "uint256"
        }
      ],
      "name": "Transfer",
      "type": "event"
    },
    {
      "inputs": [],
      "name": "MAX_TOKENS",
      "outputs": [
        {
          "internalType": "uint256",
          "name": "",
          "type": "uint256"
        }
      ],
      "stateMutability": "view",
      "type": "function"
    },
    {
      "inputs": [
        {
          "internalType": "address",
          "name": "to",
          "type": "address"
        },
        {
          "internalType": "uint256",
          "name": "tokenId",
          "type": "uint256"
        }
      ],
      "name": "approve",
      "outputs": [],
      "stateMutability": "nonpayable",
      "type": "function"
    },
    {
      "inputs": [
        {
          "internalType": "address",
          "name": "owner",
          "type": "address"
        }
      ],
      "name": "balanceOf",
      "outputs": [
        {
          "internalType": "uint256",
          "name": "",
          "type": "uint256"
        }
      ],
      "stateMutability": "view",
      "type": "function"
    },
    {
      "inputs": [
        {
          "internalType": "uint256",
          "name": "tokenId",
          "type": "uint256"
        }
      ],
      "name": "getApproved",
      "outputs": [
        {
          "internalType": "address",
          "name": "",
          "type": "address"
        }
      ],
      "stateMutability": "view",
      "type": "function"
    },
    {
      "inputs": [],
      "name": "getBalance",
      "outputs": [
        {
          "internalType": "uint256",
          "name": "",
          "type": "uint256"
        }
      ],
      "stateMutability": "view",
      "type": "function"
    },
    {
      "inputs": [
        {
          "internalType": "address",
          "name": "owner",
          "type": "address"
        },
        {
          "internalType": "address",
          "name": "operator",
          "type": "address"
        }
      ],
      "name": "isApprovedForAll",
      "outputs": [
        {
          "internalType": "bool",
          "name": "",
          "type": "bool"
        }
      ],
      "stateMutability": "view",
      "type": "function"
    },
    {
      "inputs": [],
      "name": "maxMint",
      "outputs": [
        {
          "internalType": "uint256",
          "name": "",
          "type": "uint256"
        }
      ],
      "stateMutability": "view",
      "type": "function"
    },
    {
      "inputs": [
        {
          "internalType": "uint256",
          "name": "numberOfTokens",
          "type": "uint256"
        }
      ],
      "name": "mint",
      "outputs": [],
      "stateMutability": "payable",
      "type": "function"
    },
    {
      "inputs": [],
      "name": "mintPrice",
      "outputs": [
        {
          "internalType": "uint256",
          "name": "",
          "type": "uint256"
        }
      ],
      "stateMutability": "view",
      "type": "function"
    },
    {
      "inputs": [],
      "name": "name",
      "outputs": [
        {
          "internalType": "string",
          "name": "",
          "type": "string"
        }
      ],
      "stateMutability": "view",
      "type": "function"
    },
    {
      "inputs": [
        {
          "internalType": "uint256",
          "name": "tokenId",
          "type": "uint256"
        }
      ],
      "name": "ownerOf",
      "outputs": [
        {
          "internalType": "address",
          "name": "",
          "type": "address"
        }
      ],
      "stateMutability": "view",
      "type": "function"
    },
    {
      "inputs": [
        {
          "internalType": "address",
          "name": "from",
          "type": "address"
        },
        {
          "internalType": "address",
          "name": "to",
          "type": "address"
        },
        {
          "internalType": "uint256",
          "name": "tokenId",
          "type": "uint256"
        }
      ],
      "name": "safeTransferFrom",
      "outputs": [],
      "stateMutability": "nonpayable",
      "type": "function"
    },
    {
      "inputs": [
        {
          "internalType": "address",
          "name": "from",
          "type": "address"
        },
        {
          "internalType": "address",
          "name": "to",
          "type": "address"
        },
        {
          "internalType": "uint256",
          "name": "tokenId",
          "type": "uint256"
        },
        {
          "internalType": "bytes",
          "name": "_data",
          "type": "bytes"
        }
      ],
      "name": "safeTransferFrom",
      "outputs": [],
      "stateMutability": "nonpayable",
      "type": "function"
    },
    {
      "inputs": [
        {
          "internalType": "address",
          "name": "operator",
          "type": "address"
        },
        {
          "internalType": "bool",
          "name": "approved",
          "type": "bool"
        }
      ],
      "name": "setApprovalForAll",
      "outputs": [],
      "stateMutability": "nonpayable",
      "type": "function"
    },
    {
      "inputs": [
        {
          "internalType": "bytes4",
          "name": "interfaceId",
          "type": "bytes4"
        }
      ],
      "name": "supportsInterface",
      "outputs": [
        {
          "internalType": "bool",
          "name": "",
          "type": "bool"
        }
      ],
      "stateMutability": "view",
      "type": "function"
    },
    {
      "inputs": [],
      "name": "symbol",
      "outputs": [
        {
          "internalType": "string",
          "name": "",
          "type": "string"
        }
      ],
      "stateMutability": "view",
      "type": "function"
    },
    {
      "inputs": [
        {
          "internalType": "uint256",
          "name": "index",
          "type": "uint256"
        }
      ],
      "name": "tokenByIndex",
      "outputs": [
        {
          "internalType": "uint256",
          "name": "",
          "type": "uint256"
        }
      ],
      "stateMutability": "view",
      "type": "function"
    },
    {
      "inputs": [
        {
          "internalType": "address",
          "name": "owner",
          "type": "address"
        },
        {
          "internalType": "uint256",
          "name": "index",
          "type": "uint256"
        }
      ],
      "name": "tokenOfOwnerByIndex",
      "outputs": [
        {
          "internalType": "uint256",
          "name": "",
          "type": "uint256"
        }
      ],
      "stateMutability": "view",
      "type": "function"
    },
    {
      "inputs": [
        {
          "internalType": "uint256",
          "name": "tokenId",
          "type": "uint256"
        }
      ],
      "name": "tokenURI",
      "outputs": [
        {
          "internalType": "string",
          "name": "",
          "type": "string"
        }
      ],
      "stateMutability": "view",
      "type": "function"
    },
    {
      "inputs": [],
      "name": "totalSupply",
      "outputs": [
        {
          "internalType": "uint256",
          "name": "",
          "type": "uint256"
        }
      ],
      "stateMutability": "view",
      "type": "function"
    },
    {
      "inputs": [
        {
          "internalType": "address",
          "name": "from",
          "type": "address"
        },
        {
          "internalType": "address",
          "name": "to",
          "type": "address"
        },
        {
          "internalType": "uint256",
          "name": "tokenId",
          "type": "uint256"
        }
      ],
      "name": "transferFrom",
      "outputs": [],
      "stateMutability": "nonpayable",
      "type": "function"
    }
  ],
  "bytecode": "0x6080604052612710600a553480156200001757600080fd5b506040518060400160405280600681526020017f4d696e74657200000000000000000000000000000000000000000000000000008152506040518060400160405280600681526020017f4d494e544552000000000000000000000000000000000000000000000000000081525081600090805190602001906200009c929190620000be565b508060019080519060200190620000b5929190620000be565b505050620001d3565b828054620000cc906200016e565b90600052602060002090601f016020900481019282620000f057600085556200013c565b82601f106200010b57805160ff19168380011785556200013c565b828001600101855582156200013c579182015b828111156200013b5782518255916020019190600101906200011e565b5b5090506200014b91906200014f565b5090565b5b808211156200016a57600081600090555060010162000150565b5090565b600060028204905060018216806200018757607f821691505b602082108114156200019e576200019d620001a4565b5b50919050565b7f4e487b7100000000000000000000000000000000000000000000000000000000600052602260045260246000fd5b6134fc80620001e36000396000f3fe60806040526004361061012a5760003560e01c80636352211e116100ab578063a0712d681161006f578063a0712d681461041a578063a22cb46514610436578063b88d4fde1461045f578063c87b56dd14610488578063e985e9c5146104c5578063f47c84c5146105025761012a565b80636352211e1461031f5780636817c76c1461035c57806370a08231146103875780637501f741146103c457806395d89b41146103ef5761012a565b806318160ddd116100f257806318160ddd1461022857806323b872dd146102535780632f745c591461027c57806342842e0e146102b95780634f6ccce7146102e25761012a565b806301ffc9a71461012f57806306fdde031461016c578063081812fc14610197578063095ea7b3146101d457806312065fe0146101fd575b600080fd5b34801561013b57600080fd5b5061015660048036038101906101519190612384565b61052d565b6040516101639190612816565b60405180910390f35b34801561017857600080fd5b506101816105a7565b60405161018e9190612831565b60405180910390f35b3480156101a357600080fd5b506101be60048036038101906101b991906123d6565b610639565b6040516101cb91906127af565b60405180910390f35b3480156101e057600080fd5b506101fb60048036038101906101f69190612348565b6106be565b005b34801561020957600080fd5b506102126107d6565b60405161021f9190612ad3565b60405180910390f35b34801561023457600080fd5b5061023d6107de565b60405161024a9190612ad3565b60405180910390f35b34801561025f57600080fd5b5061027a60048036038101906102759190612242565b6107eb565b005b34801561028857600080fd5b506102a3600480360381019061029e9190612348565b61084b565b6040516102b09190612ad3565b60405180910390f35b3480156102c557600080fd5b506102e060048036038101906102db9190612242565b6108f0565b005b3480156102ee57600080fd5b50610309600480360381019061030491906123d6565b610910565b6040516103169190612ad3565b60405180910390f35b34801561032b57600080fd5b50610346600480360381019061034191906123d6565b6109a7565b60405161035391906127af565b60405180910390f35b34801561036857600080fd5b50610371610a59565b60405161037e9190612ad3565b60405180910390f35b34801561039357600080fd5b506103ae60048036038101906103a991906121dd565b610a64565b6040516103bb9190612ad3565b60405180910390f35b3480156103d057600080fd5b506103d9610b1c565b6040516103e69190612ad3565b60405180910390f35b3480156103fb57600080fd5b50610404610b21565b6040516104119190612831565b60405180910390f35b610434600480360381019061042f91906123d6565b610bb3565b005b34801561044257600080fd5b5061045d6004803603810190610458919061230c565b610d39565b005b34801561046b57600080fd5b5061048660048036038101906104819190612291565b610d4f565b005b34801561049457600080fd5b506104af60048036038101906104aa91906123d6565b610db1565b6040516104bc9190612831565b60405180910390f35b3480156104d157600080fd5b506104ec60048036038101906104e79190612206565b610e58565b6040516104f99190612816565b60405180910390f35b34801561050e57600080fd5b50610517610eec565b6040516105249190612ad3565b60405180910390f35b60007f780e9d63000000000000000000000000000000000000000000000000000000007bffffffffffffffffffffffffffffffffffffffffffffffffffffffff1916827bffffffffffffffffffffffffffffffffffffffffffffffffffffffff191614806105a0575061059f82610ef2565b5b9050919050565b6060600080546105b690612d52565b80601f01602080910402602001604051908101604052809291908181526020018280546105e290612d52565b801561062f5780601f106106045761010080835404028352916020019161062f565b820191906000526020600020905b81548152906001019060200180831161061257829003601f168201915b5050505050905090565b600061064482610fd4565b610683576040517f08c379a000000000000000000000000000000000000000000000000000000000815260040161067a906129d3565b60405180910390fd5b6004600083815260200190815260200160002060009054906101000a900473ffffffffffffffffffffffffffffffffffffffff169050919050565b60006106c9826109a7565b90508073ffffffffffffffffffffffffffffffffffffffff168373ffffffffffffffffffffffffffffffffffffffff16141561073a576040517f08c379a000000000000000000000000000000000000000000000000000000000815260040161073190612a53565b60405180910390fd5b8073ffffffffffffffffffffffffffffffffffffffff16610759611040565b73ffffffffffffffffffffffffffffffffffffffff161480610788575061078781610782611040565b610e58565b5b6107c7576040517f08c379a00000000000000000000000000000000000000000000000000000000081526004016107be90612933565b60405180910390fd5b6107d18383611048565b505050565b600047905090565b6000600880549050905090565b6107fc6107f6611040565b82611101565b61083b576040517f08c379a000000000000000000000000000000000000000000000000000000000815260040161083290612a73565b60405180910390fd5b6108468383836111df565b505050565b600061085683610a64565b8210610897576040517f08c379a000000000000000000000000000000000000000000000000000000000815260040161088e90612853565b60405180910390fd5b600660008473ffffffffffffffffffffffffffffffffffffffff1673ffffffffffffffffffffffffffffffffffffffff168152602001908152602001600020600083815260200190815260200160002054905092915050565b61090b83838360405180602001604052806000815250610d4f565b505050565b600061091a6107de565b821061095b576040517f08c379a000000000000000000000000000000000000000000000000000000000815260040161095290612a93565b60405180910390fd5b60088281548110610995577f4e487b7100000000000000000000000000000000000000000000000000000000600052603260045260246000fd5b90600052602060002001549050919050565b6000806002600084815260200190815260200160002060009054906101000a900473ffffffffffffffffffffffffffffffffffffffff169050600073ffffffffffffffffffffffffffffffffffffffff168173ffffffffffffffffffffffffffffffffffffffff161415610a50576040517f08c379a0000000000000000000000000000000000000000000000000000000008152600401610a4790612973565b60405180910390fd5b80915050919050565b666a94d74f43000081565b60008073ffffffffffffffffffffffffffffffffffffffff168273ffffffffffffffffffffffffffffffffffffffff161415610ad5576040517f08c379a0000000000000000000000000000000000000000000000000000000008152600401610acc90612953565b60405180910390fd5b600360008373ffffffffffffffffffffffffffffffffffffffff1673ffffffffffffffffffffffffffffffffffffffff168152602001908152602001600020549050919050565b600a81565b606060018054610b3090612d52565b80601f0160208091040260200160405190810160405280929190818152602001828054610b5c90612d52565b8015610ba95780601f10610b7e57610100808354040283529160200191610ba9565b820191906000526020600020905b815481529060010190602001808311610b8c57829003601f168201915b5050505050905090565b6000811415610bf7576040517f08c379a0000000000000000000000000000000000000000000000000000000008152600401610bee90612993565b60405180910390fd5b600a811115610c3b576040517f08c379a0000000000000000000000000000000000000000000000000000000008152600401610c3290612a13565b60405180910390fd5b600a54610c5882610c4a6107de565b61144690919063ffffffff16565b1115610c99576040517f08c379a0000000000000000000000000000000000000000000000000000000008152600401610c9090612ab3565b60405180910390fd5b34610cb482666a94d74f43000061145c90919063ffffffff16565b1115610cf5576040517f08c379a0000000000000000000000000000000000000000000000000000000008152600401610cec90612a33565b60405180910390fd5b60005b81811015610d35576000610d0a6107de565b9050600a54811015610d2157610d203382611472565b5b508080610d2d90612db5565b915050610cf8565b5050565b610d4b610d44611040565b8383611490565b5050565b610d60610d5a611040565b83611101565b610d9f576040517f08c379a0000000000000000000000000000000000000000000000000000000008152600401610d9690612a73565b60405180910390fd5b610dab848484846115fd565b50505050565b6060610dbc82610fd4565b610dfb576040517f08c379a0000000000000000000000000000000000000000000000000000000008152600401610df2906129f3565b60405180910390fd5b6000610e05611659565b90506000815111610e255760405180602001604052806000815250610e50565b80610e2f84611670565b604051602001610e4092919061278b565b6040516020818303038152906040525b915050919050565b6000600560008473ffffffffffffffffffffffffffffffffffffffff1673ffffffffffffffffffffffffffffffffffffffff16815260200190815260200160002060008373ffffffffffffffffffffffffffffffffffffffff1673ffffffffffffffffffffffffffffffffffffffff16815260200190815260200160002060009054906101000a900460ff16905092915050565b600a5481565b60007f80ac58cd000000000000000000000000000000000000000000000000000000007bffffffffffffffffffffffffffffffffffffffffffffffffffffffff1916827bffffffffffffffffffffffffffffffffffffffffffffffffffffffff19161480610fbd57507f5b5e139f000000000000000000000000000000000000000000000000000000007bffffffffffffffffffffffffffffffffffffffffffffffffffffffff1916827bffffffffffffffffffffffffffffffffffffffffffffffffffffffff1916145b80610fcd5750610fcc8261181d565b5b9050919050565b60008073ffffffffffffffffffffffffffffffffffffffff166002600084815260200190815260200160002060009054906101000a900473ffffffffffffffffffffffffffffffffffffffff1673ffffffffffffffffffffffffffffffffffffffff1614159050919050565b600033905090565b816004600083815260200190815260200160002060006101000a81548173ffffffffffffffffffffffffffffffffffffffff021916908373ffffffffffffffffffffffffffffffffffffffff160217905550808273ffffffffffffffffffffffffffffffffffffffff166110bb836109a7565b73ffffffffffffffffffffffffffffffffffffffff167f8c5be1e5ebec7d5bd14f71427d1e84f3dd0314c0f7b2291e5b200ac8c7c3b92560405160405180910390a45050565b600061110c82610fd4565b61114b576040517f08c379a000000000000000000000000000000000000000000000000000000000815260040161114290612913565b60405180910390fd5b6000611156836109a7565b90508073ffffffffffffffffffffffffffffffffffffffff168473ffffffffffffffffffffffffffffffffffffffff1614806111c557508373ffffffffffffffffffffffffffffffffffffffff166111ad84610639565b73ffffffffffffffffffffffffffffffffffffffff16145b806111d657506111d58185610e58565b5b91505092915050565b8273ffffffffffffffffffffffffffffffffffffffff166111ff826109a7565b73ffffffffffffffffffffffffffffffffffffffff1614611255576040517f08c379a000000000000000000000000000000000000000000000000000000000815260040161124c90612893565b60405180910390fd5b600073ffffffffffffffffffffffffffffffffffffffff168273ffffffffffffffffffffffffffffffffffffffff1614156112c5576040517f08c379a00000000000000000000000000000000000000000000000000000000081526004016112bc906128d3565b60405180910390fd5b6112d0838383611887565b6112db600082611048565b6001600360008573ffffffffffffffffffffffffffffffffffffffff1673ffffffffffffffffffffffffffffffffffffffff168152602001908152602001600020600082825461132b9190612c68565b925050819055506001600360008473ffffffffffffffffffffffffffffffffffffffff1673ffffffffffffffffffffffffffffffffffffffff16815260200190815260200160002060008282546113829190612b87565b92505081905550816002600083815260200190815260200160002060006101000a81548173ffffffffffffffffffffffffffffffffffffffff021916908373ffffffffffffffffffffffffffffffffffffffff160217905550808273ffffffffffffffffffffffffffffffffffffffff168473ffffffffffffffffffffffffffffffffffffffff167fddf252ad1be2c89b69c2b068fc378daa952ba7f163c4a11628f55a4df523b3ef60405160405180910390a461144183838361199b565b505050565b600081836114549190612b87565b905092915050565b6000818361146a9190612c0e565b905092915050565b61148c8282604051806020016040528060008152506119a0565b5050565b8173ffffffffffffffffffffffffffffffffffffffff168373ffffffffffffffffffffffffffffffffffffffff1614156114ff576040517f08c379a00000000000000000000000000000000000000000000000000000000081526004016114f6906128f3565b60405180910390fd5b80600560008573ffffffffffffffffffffffffffffffffffffffff1673ffffffffffffffffffffffffffffffffffffffff16815260200190815260200160002060008473ffffffffffffffffffffffffffffffffffffffff1673ffffffffffffffffffffffffffffffffffffffff16815260200190815260200160002060006101000a81548160ff0219169083151502179055508173ffffffffffffffffffffffffffffffffffffffff168373ffffffffffffffffffffffffffffffffffffffff167f17307eab39ab6107e8899845ad3d59bd9653f200f220920489ca2b5937696c31836040516115f09190612816565b60405180910390a3505050565b6116088484846111df565b611614848484846119fb565b611653576040517f08c379a000000000000000000000000000000000000000000000000000000000815260040161164a90612873565b60405180910390fd5b50505050565b606060405180602001604052806000815250905090565b606060008214156116b8576040518060400160405280600181526020017f30000000000000000000000000000000000000000000000000000000000000008152509050611818565b600082905060005b600082146116ea5780806116d390612db5565b915050600a826116e39190612bdd565b91506116c0565b60008167ffffffffffffffff81111561172c577f4e487b7100000000000000000000000000000000000000000000000000000000600052604160045260246000fd5b6040519080825280601f01601f19166020018201604052801561175e5781602001600182028036833780820191505090505b5090505b60008514611811576001826117779190612c68565b9150600a856117869190612dfe565b60306117929190612b87565b60f81b8183815181106117ce577f4e487b7100000000000000000000000000000000000000000000000000000000600052603260045260246000fd5b60200101907effffffffffffffffffffffffffffffffffffffffffffffffffffffffffffff1916908160001a905350600a8561180a9190612bdd565b9450611762565b8093505050505b919050565b60007f01ffc9a7000000000000000000000000000000000000000000000000000000007bffffffffffffffffffffffffffffffffffffffffffffffffffffffff1916827bffffffffffffffffffffffffffffffffffffffffffffffffffffffff1916149050919050565b611892838383611b92565b600073ffffffffffffffffffffffffffffffffffffffff168373ffffffffffffffffffffffffffffffffffffffff1614156118d5576118d081611b97565b611914565b8173ffffffffffffffffffffffffffffffffffffffff168373ffffffffffffffffffffffffffffffffffffffff1614611913576119128382611be0565b5b5b600073ffffffffffffffffffffffffffffffffffffffff168273ffffffffffffffffffffffffffffffffffffffff1614156119575761195281611d4d565b611996565b8273ffffffffffffffffffffffffffffffffffffffff168273ffffffffffffffffffffffffffffffffffffffff1614611995576119948282611e90565b5b5b505050565b505050565b6119aa8383611f0f565b6119b760008484846119fb565b6119f6576040517f08c379a00000000000000000000000000000000000000000000000000000000081526004016119ed90612873565b60405180910390fd5b505050565b6000611a1c8473ffffffffffffffffffffffffffffffffffffffff166120e9565b15611b85578373ffffffffffffffffffffffffffffffffffffffff1663150b7a02611a45611040565b8786866040518563ffffffff1660e01b8152600401611a6794939291906127ca565b602060405180830381600087803b158015611a8157600080fd5b505af1925050508015611ab257506040513d601f19601f82011682018060405250810190611aaf91906123ad565b60015b611b35573d8060008114611ae2576040519150601f19603f3d011682016040523d82523d6000602084013e611ae7565b606091505b50600081511415611b2d576040517f08c379a0000000000000000000000000000000000000000000000000000000008152600401611b2490612873565b60405180910390fd5b805181602001fd5b63150b7a0260e01b7bffffffffffffffffffffffffffffffffffffffffffffffffffffffff1916817bffffffffffffffffffffffffffffffffffffffffffffffffffffffff191614915050611b8a565b600190505b949350505050565b505050565b6008805490506009600083815260200190815260200160002081905550600881908060018154018082558091505060019003906000526020600020016000909190919091505550565b60006001611bed84610a64565b611bf79190612c68565b9050600060076000848152602001908152602001600020549050818114611cdc576000600660008673ffffffffffffffffffffffffffffffffffffffff1673ffffffffffffffffffffffffffffffffffffffff168152602001908152602001600020600084815260200190815260200160002054905080600660008773ffffffffffffffffffffffffffffffffffffffff1673ffffffffffffffffffffffffffffffffffffffff168152602001908152602001600020600084815260200190815260200160002081905550816007600083815260200190815260200160002081905550505b6007600084815260200190815260200160002060009055600660008573ffffffffffffffffffffffffffffffffffffffff1673ffffffffffffffffffffffffffffffffffffffff16815260200190815260200160002060008381526020019081526020016000206000905550505050565b60006001600880549050611d619190612c68565b9050600060096000848152602001908152602001600020549050600060088381548110611db7577f4e487b7100000000000000000000000000000000000000000000000000000000600052603260045260246000fd5b906000526020600020015490508060088381548110611dff577f4e487b7100000000000000000000000000000000000000000000000000000000600052603260045260246000fd5b906000526020600020018190555081600960008381526020019081526020016000208190555060096000858152602001908152602001600020600090556008805480611e74577f4e487b7100000000000000000000000000000000000000000000000000000000600052603160045260246000fd5b6001900381819060005260206000200160009055905550505050565b6000611e9b83610a64565b905081600660008573ffffffffffffffffffffffffffffffffffffffff1673ffffffffffffffffffffffffffffffffffffffff168152602001908152602001600020600083815260200190815260200160002081905550806007600084815260200190815260200160002081905550505050565b600073ffffffffffffffffffffffffffffffffffffffff168273ffffffffffffffffffffffffffffffffffffffff161415611f7f576040517f08c379a0000000000000000000000000000000000000000000000000000000008152600401611f76906129b3565b60405180910390fd5b611f8881610fd4565b15611fc8576040517f08c379a0000000000000000000000000000000000000000000000000000000008152600401611fbf906128b3565b60405180910390fd5b611fd460008383611887565b6001600360008473ffffffffffffffffffffffffffffffffffffffff1673ffffffffffffffffffffffffffffffffffffffff16815260200190815260200160002060008282546120249190612b87565b92505081905550816002600083815260200190815260200160002060006101000a81548173ffffffffffffffffffffffffffffffffffffffff021916908373ffffffffffffffffffffffffffffffffffffffff160217905550808273ffffffffffffffffffffffffffffffffffffffff16600073ffffffffffffffffffffffffffffffffffffffff167fddf252ad1be2c89b69c2b068fc378daa952ba7f163c4a11628f55a4df523b3ef60405160405180910390a46120e56000838361199b565b5050565b6000808273ffffffffffffffffffffffffffffffffffffffff163b119050919050565b600061211f61211a84612b13565b612aee565b90508281526020810184848401111561213757600080fd5b612142848285612d10565b509392505050565b6000813590506121598161346a565b92915050565b60008135905061216e81613481565b92915050565b60008135905061218381613498565b92915050565b60008151905061219881613498565b92915050565b600082601f8301126121af57600080fd5b81356121bf84826020860161210c565b91505092915050565b6000813590506121d7816134af565b92915050565b6000602082840312156121ef57600080fd5b60006121fd8482850161214a565b91505092915050565b6000806040838503121561221957600080fd5b60006122278582860161214a565b92505060206122388582860161214a565b9150509250929050565b60008060006060848603121561225757600080fd5b60006122658682870161214a565b93505060206122768682870161214a565b9250506040612287868287016121c8565b9150509250925092565b600080600080608085870312156122a757600080fd5b60006122b58782880161214a565b94505060206122c68782880161214a565b93505060406122d7878288016121c8565b925050606085013567ffffffffffffffff8111156122f457600080fd5b6123008782880161219e565b91505092959194509250565b6000806040838503121561231f57600080fd5b600061232d8582860161214a565b925050602061233e8582860161215f565b9150509250929050565b6000806040838503121561235b57600080fd5b60006123698582860161214a565b925050602061237a858286016121c8565b9150509250929050565b60006020828403121561239657600080fd5b60006123a484828501612174565b91505092915050565b6000602082840312156123bf57600080fd5b60006123cd84828501612189565b91505092915050565b6000602082840312156123e857600080fd5b60006123f6848285016121c8565b91505092915050565b61240881612c9c565b82525050565b61241781612cae565b82525050565b600061242882612b44565b6124328185612b5a565b9350612442818560208601612d1f565b61244b81612eeb565b840191505092915050565b600061246182612b4f565b61246b8185612b6b565b935061247b818560208601612d1f565b61248481612eeb565b840191505092915050565b600061249a82612b4f565b6124a48185612b7c565b93506124b4818560208601612d1f565b80840191505092915050565b60006124cd602b83612b6b565b91506124d882612efc565b604082019050919050565b60006124f0603283612b6b565b91506124fb82612f4b565b604082019050919050565b6000612513602583612b6b565b915061251e82612f9a565b604082019050919050565b6000612536601c83612b6b565b915061254182612fe9565b602082019050919050565b6000612559602483612b6b565b915061256482613012565b604082019050919050565b600061257c601983612b6b565b915061258782613061565b602082019050919050565b600061259f602c83612b6b565b91506125aa8261308a565b604082019050919050565b60006125c2603883612b6b565b91506125cd826130d9565b604082019050919050565b60006125e5602a83612b6b565b91506125f082613128565b604082019050919050565b6000612608602983612b6b565b915061261382613177565b604082019050919050565b600061262b602183612b6b565b9150612636826131c6565b604082019050919050565b600061264e602083612b6b565b915061265982613215565b602082019050919050565b6000612671602c83612b6b565b915061267c8261323e565b604082019050919050565b6000612694602f83612b6b565b915061269f8261328d565b604082019050919050565b60006126b7602583612b6b565b91506126c2826132dc565b604082019050919050565b60006126da601683612b6b565b91506126e58261332b565b602082019050919050565b60006126fd602183612b6b565b915061270882613354565b604082019050919050565b6000612720603183612b6b565b915061272b826133a3565b604082019050919050565b6000612743602c83612b6b565b915061274e826133f2565b604082019050919050565b6000612766602083612b6b565b915061277182613441565b602082019050919050565b61278581612d06565b82525050565b6000612797828561248f565b91506127a3828461248f565b91508190509392505050565b60006020820190506127c460008301846123ff565b92915050565b60006080820190506127df60008301876123ff565b6127ec60208301866123ff565b6127f9604083018561277c565b818103606083015261280b818461241d565b905095945050505050565b600060208201905061282b600083018461240e565b92915050565b6000602082019050818103600083015261284b8184612456565b905092915050565b6000602082019050818103600083015261286c816124c0565b9050919050565b6000602082019050818103600083015261288c816124e3565b9050919050565b600060208201905081810360008301526128ac81612506565b9050919050565b600060208201905081810360008301526128cc81612529565b9050919050565b600060208201905081810360008301526128ec8161254c565b9050919050565b6000602082019050818103600083015261290c8161256f565b9050919050565b6000602082019050818103600083015261292c81612592565b9050919050565b6000602082019050818103600083015261294c816125b5565b9050919050565b6000602082019050818103600083015261296c816125d8565b9050919050565b6000602082019050818103600083015261298c816125fb565b9050919050565b600060208201905081810360008301526129ac8161261e565b9050919050565b600060208201905081810360008301526129cc81612641565b9050919050565b600060208201905081810360008301526129ec81612664565b9050919050565b60006020820190508181036000830152612a0c81612687565b9050919050565b60006020820190508181036000830152612a2c816126aa565b9050919050565b60006020820190508181036000830152612a4c816126cd565b9050919050565b60006020820190508181036000830152612a6c816126f0565b9050919050565b60006020820190508181036000830152612a8c81612713565b9050919050565b60006020820190508181036000830152612aac81612736565b9050919050565b60006020820190508181036000830152612acc81612759565b9050919050565b6000602082019050612ae8600083018461277c565b92915050565b6000612af8612b09565b9050612b048282612d84565b919050565b6000604051905090565b600067ffffffffffffffff821115612b2e57612b2d612ebc565b5b612b3782612eeb565b9050602081019050919050565b600081519050919050565b600081519050919050565b600082825260208201905092915050565b600082825260208201905092915050565b600081905092915050565b6000612b9282612d06565b9150612b9d83612d06565b9250827fffffffffffffffffffffffffffffffffffffffffffffffffffffffffffffffff03821115612bd257612bd1612e2f565b5b828201905092915050565b6000612be882612d06565b9150612bf383612d06565b925082612c0357612c02612e5e565b5b828204905092915050565b6000612c1982612d06565b9150612c2483612d06565b9250817fffffffffffffffffffffffffffffffffffffffffffffffffffffffffffffffff0483118215151615612c5d57612c5c612e2f565b5b828202905092915050565b6000612c7382612d06565b9150612c7e83612d06565b925082821015612c9157612c90612e2f565b5b828203905092915050565b6000612ca782612ce6565b9050919050565b60008115159050919050565b60007fffffffff0000000000000000000000000000000000000000000000000000000082169050919050565b600073ffffffffffffffffffffffffffffffffffffffff82169050919050565b6000819050919050565b82818337600083830152505050565b60005b83811015612d3d578082015181840152602081019050612d22565b83811115612d4c576000848401525b50505050565b60006002820490506001821680612d6a57607f821691505b60208210811415612d7e57612d7d612e8d565b5b50919050565b612d8d82612eeb565b810181811067ffffffffffffffff82111715612dac57612dab612ebc565b5b80604052505050565b6000612dc082612d06565b91507fffffffffffffffffffffffffffffffffffffffffffffffffffffffffffffffff821415612df357612df2612e2f565b5b600182019050919050565b6000612e0982612d06565b9150612e1483612d06565b925082612e2457612e23612e5e565b5b828206905092915050565b7f4e487b7100000000000000000000000000000000000000000000000000000000600052601160045260246000fd5b7f4e487b7100000000000000000000000000000000000000000000000000000000600052601260045260246000fd5b7f4e487b7100000000000000000000000000000000000000000000000000000000600052602260045260246000fd5b7f4e487b7100000000000000000000000000000000000000000000000000000000600052604160045260246000fd5b6000601f19601f8301169050919050565b7f455243373231456e756d657261626c653a206f776e657220696e646578206f7560008201527f74206f6620626f756e6473000000000000000000000000000000000000000000602082015250565b7f4552433732313a207472616e7366657220746f206e6f6e20455243373231526560008201527f63656976657220696d706c656d656e7465720000000000000000000000000000602082015250565b7f4552433732313a207472616e736665722066726f6d20696e636f72726563742060008201527f6f776e6572000000000000000000000000000000000000000000000000000000602082015250565b7f4552433732313a20746f6b656e20616c7265616479206d696e74656400000000600082015250565b7f4552433732313a207472616e7366657220746f20746865207a65726f2061646460008201527f7265737300000000000000000000000000000000000000000000000000000000602082015250565b7f4552433732313a20617070726f766520746f2063616c6c657200000000000000600082015250565b7f4552433732313a206f70657261746f7220717565727920666f72206e6f6e657860008201527f697374656e7420746f6b656e0000000000000000000000000000000000000000602082015250565b7f4552433732313a20617070726f76652063616c6c6572206973206e6f74206f7760008201527f6e6572206e6f7220617070726f76656420666f7220616c6c0000000000000000602082015250565b7f4552433732313a2062616c616e636520717565727920666f7220746865207a6560008201527f726f206164647265737300000000000000000000000000000000000000000000602082015250565b7f4552433732313a206f776e657220717565727920666f72206e6f6e657869737460008201527f656e7420746f6b656e0000000000000000000000000000000000000000000000602082015250565b7f596f75206e65656420746f206d696e74206174206c65617374203120746f6b6560008201527f6e00000000000000000000000000000000000000000000000000000000000000602082015250565b7f4552433732313a206d696e7420746f20746865207a65726f2061646472657373600082015250565b7f4552433732313a20617070726f76656420717565727920666f72206e6f6e657860008201527f697374656e7420746f6b656e0000000000000000000000000000000000000000602082015250565b7f4552433732314d657461646174613a2055524920717565727920666f72206e6f60008201527f6e6578697374656e7420746f6b656e0000000000000000000000000000000000602082015250565b7f596f752063616e206f6e6c79206d696e7420313020746f6b656e73206174206160008201527f2074696d65000000000000000000000000000000000000000000000000000000602082015250565b7f4e6f7420656e6f7567682045746865722073656e742e00000000000000000000600082015250565b7f4552433732313a20617070726f76616c20746f2063757272656e74206f776e6560008201527f7200000000000000000000000000000000000000000000000000000000000000602082015250565b7f4552433732313a207472616e736665722063616c6c6572206973206e6f74206f60008201527f776e6572206e6f7220617070726f766564000000000000000000000000000000602082015250565b7f455243373231456e756d657261626c653a20676c6f62616c20696e646578206f60008201527f7574206f6620626f756e64730000000000000000000000000000000000000000602082015250565b7f4d696e74696e6720776f756c6420657863656564206d61782e20737570706c79600082015250565b61347381612c9c565b811461347e57600080fd5b50565b61348a81612cae565b811461349557600080fd5b50565b6134a181612cba565b81146134ac57600080fd5b50565b6134b881612d06565b81146134c357600080fd5b5056fea26469706673582212201a984e7cbd5313cc0d12c83556926688bb7308556cd4c357777f0e0772f814dd64736f6c63430008040033",
  "linkReferences": {},
  "deployedLinkReferences": {}
}