{
  "_format": "hh-sol-artifact-1",
  "contractName": "F0",
  "sourceName": "contracts/F0.sol",
  "abi": [
    {
      "anonymous": false,
      "inputs": [
        {
          "indexed": true,
          "internalType": "address",
          "name": "owner",
          "type": "address"
        },
        {
          "indexed": true,
          "internalType": "address",
          "name": "approved",
          "type": "address"
        },
        {
          "indexed": true,
          "internalType": "uint256",
          "name": "tokenId",
          "type": "uint256"
        }
      ],
      "name": "Approval",
      "type": "event"
    },
    {
      "anonymous": false,
      "inputs": [
        {
          "indexed": true,
          "internalType": "address",
          "name": "owner",
          "type": "address"
        },
        {
          "indexed": true,
          "internalType": "address",
          "name": "operator",
          "type": "address"
        },
        {
          "indexed": false,
          "internalType": "bool",
          "name": "approved",
          "type": "bool"
        }
      ],
      "name": "ApprovalForAll",
      "type": "event"
    },
    {
      "anonymous": false,
      "inputs": [
        {
          "components": [
            {
              "internalType": "string",
              "name": "placeholder",
              "type": "string"
            },
            {
              "internalType": "string",
              "name": "base",
              "type": "string"
            },
            {
              "internalType": "uint64",
              "name": "supply",
              "type": "uint64"
            },
            {
              "internalType": "bool",
              "name": "permanent",
              "type": "bool"
            }
          ],
          "indexed": false,
          "internalType": "struct F0.Config",
          "name": "config",
          "type": "tuple"
        }
      ],
      "name": "Configured",
      "type": "event"
    },
    {
      "anonymous": false,
      "inputs": [
        {
          "indexed": true,
          "internalType": "bytes32",
          "name": "key",
          "type": "bytes32"
        },
        {
          "indexed": true,
          "internalType": "bytes32",
          "name": "cid",
          "type": "bytes32"
        }
      ],
      "name": "Invited",
      "type": "event"
    },
    {
      "anonymous": false,
      "inputs": [
        {
          "indexed": false,
          "internalType": "string",
          "name": "name",
          "type": "string"
        },
        {
          "indexed": false,
          "internalType": "string",
          "name": "symbol",
          "type": "string"
        }
      ],
      "name": "NSUpdated",
      "type": "event"
    },
    {
      "anonymous": false,
      "inputs": [
        {
          "indexed": true,
          "internalType": "address",
          "name": "previousOwner",
          "type": "address"
        },
        {
          "indexed": true,
          "internalType": "address",
          "name": "newOwner",
          "type": "address"
        }
      ],
      "name": "OwnershipTransferred",
      "type": "event"
    },
    {
      "anonymous": false,
      "inputs": [
        {
          "indexed": true,
          "internalType": "address",
          "name": "from",
          "type": "address"
        },
        {
          "indexed": true,
          "internalType": "address",
          "name": "to",
          "type": "address"
        },
        {
          "indexed": true,
          "internalType": "uint256",
          "name": "tokenId",
          "type": "uint256"
        }
      ],
      "name": "Transfer",
      "type": "event"
    },
    {
      "anonymous": false,
      "inputs": [
        {
          "components": [
            {
              "internalType": "address",
              "name": "account",
              "type": "address"
            },
            {
              "internalType": "bool",
              "name": "permanent",
              "type": "bool"
            }
          ],
          "indexed": false,
          "internalType": "struct F0.Withdrawer",
          "name": "withdrawer",
          "type": "tuple"
        }
      ],
      "name": "WithdrawerUpdated",
      "type": "event"
    },
    {
      "inputs": [],
      "name": "URI",
      "outputs": [
        {
          "internalType": "string",
          "name": "",
          "type": "string"
        }
      ],
      "stateMutability": "view",
      "type": "function"
    },
    {
      "inputs": [
        {
          "internalType": "address",
          "name": "to",
          "type": "address"
        },
        {
          "internalType": "uint256",
          "name": "tokenId",
          "type": "uint256"
        }
      ],
      "name": "approve",
      "outputs": [],
      "stateMutability": "nonpayable",
      "type": "function"
    },
    {
      "inputs": [
        {
          "internalType": "address",
          "name": "owner",
          "type": "address"
        }
      ],
      "name": "balanceOf",
      "outputs": [
        {
          "internalType": "uint256",
          "name": "",
          "type": "uint256"
        }
      ],
      "stateMutability": "view",
      "type": "function"
    },
    {
      "inputs": [
        {
          "internalType": "uint256",
          "name": "_tokenId",
          "type": "uint256"
        }
      ],
      "name": "burn",
      "outputs": [],
      "stateMutability": "nonpayable",
      "type": "function"
    },
    {
      "inputs": [],
      "name": "config",
      "outputs": [
        {
          "internalType": "string",
          "name": "placeholder",
          "type": "string"
        },
        {
          "internalType": "string",
          "name": "base",
          "type": "string"
        },
        {
          "internalType": "uint64",
          "name": "supply",
          "type": "uint64"
        },
        {
          "internalType": "bool",
          "name": "permanent",
          "type": "bool"
        }
      ],
      "stateMutability": "view",
      "type": "function"
    },
    {
      "inputs": [
        {
          "internalType": "uint256",
          "name": "tokenId",
          "type": "uint256"
        }
      ],
      "name": "getApproved",
      "outputs": [
        {
          "internalType": "address",
          "name": "",
          "type": "address"
        }
      ],
      "stateMutability": "view",
      "type": "function"
    },
    {
      "inputs": [
        {
          "internalType": "address",
          "name": "_receiver",
          "type": "address"
        },
        {
          "internalType": "uint256",
          "name": "_count",
          "type": "uint256"
        }
      ],
      "name": "gift",
      "outputs": [],
      "stateMutability": "nonpayable",
      "type": "function"
    },
    {
      "inputs": [
        {
          "internalType": "string",
          "name": "name",
          "type": "string"
        },
        {
          "internalType": "string",
          "name": "symbol",
          "type": "string"
        },
        {
          "components": [
            {
              "internalType": "string",
              "name": "placeholder",
              "type": "string"
            },
            {
              "internalType": "string",
              "name": "base",
              "type": "string"
            },
            {
              "internalType": "uint64",
              "name": "supply",
              "type": "uint64"
            },
            {
              "internalType": "bool",
              "name": "permanent",
              "type": "bool"
            }
          ],
          "internalType": "struct F0.Config",
          "name": "_config",
          "type": "tuple"
        }
      ],
      "name": "initialize",
      "outputs": [],
      "stateMutability": "nonpayable",
      "type": "function"
    },
    {
      "inputs": [
        {
          "internalType": "bytes32",
          "name": "",
          "type": "bytes32"
        }
      ],
      "name": "invite",
      "outputs": [
        {
          "internalType": "uint128",
          "name": "price",
          "type": "uint128"
        },
        {
          "internalType": "uint64",
          "name": "start",
          "type": "uint64"
        },
        {
          "internalType": "uint64",
          "name": "limit",
          "type": "uint64"
        }
      ],
      "stateMutability": "view",
      "type": "function"
    },
    {
      "inputs": [
        {
          "internalType": "address",
          "name": "owner",
          "type": "address"
        },
        {
          "internalType": "address",
          "name": "operator",
          "type": "address"
        }
      ],
      "name": "isApprovedForAll",
      "outputs": [
        {
          "internalType": "bool",
          "name": "",
          "type": "bool"
        }
      ],
      "stateMutability": "view",
      "type": "function"
    },
    {
      "inputs": [
        {
          "components": [
            {
              "internalType": "bytes32",
              "name": "key",
              "type": "bytes32"
            },
            {
              "internalType": "bytes32[]",
              "name": "proof",
              "type": "bytes32[]"
            }
          ],
          "internalType": "struct F0.Auth",
          "name": "auth",
          "type": "tuple"
        },
        {
          "internalType": "uint256",
          "name": "_count",
          "type": "uint256"
        }
      ],
      "name": "mint",
      "outputs": [],
      "stateMutability": "payable",
      "type": "function"
    },
    {
      "inputs": [],
      "name": "name",
      "outputs": [
        {
          "internalType": "string",
          "name": "",
          "type": "string"
        }
      ],
      "stateMutability": "view",
      "type": "function"
    },
    {
      "inputs": [],
      "name": "nextId",
      "outputs": [
        {
          "internalType": "uint256",
          "name": "",
          "type": "uint256"
        }
      ],
      "stateMutability": "view",
      "type": "function"
    },
    {
      "inputs": [],
      "name": "owner",
      "outputs": [
        {
          "internalType": "address",
          "name": "",
          "type": "address"
        }
      ],
      "stateMutability": "view",
      "type": "function"
    },
    {
      "inputs": [
        {
          "internalType": "uint256",
          "name": "tokenId",
          "type": "uint256"
        }
      ],
      "name": "ownerOf",
      "outputs": [
        {
          "internalType": "address",
          "name": "",
          "type": "address"
        }
      ],
      "stateMutability": "view",
      "type": "function"
    },
    {
      "inputs": [],
      "name": "renounceOwnership",
      "outputs": [],
      "stateMutability": "nonpayable",
      "type": "function"
    },
    {
      "inputs": [],
      "name": "royalty",
      "outputs": [
        {
          "internalType": "address",
          "name": "",
          "type": "address"
        }
      ],
      "stateMutability": "view",
      "type": "function"
    },
    {
      "inputs": [
        {
          "internalType": "uint256",
          "name": "tokenId",
          "type": "uint256"
        },
        {
          "internalType": "uint256",
          "name": "value",
          "type": "uint256"
        }
      ],
      "name": "royaltyInfo",
      "outputs": [
        {
          "internalType": "address",
          "name": "receiver",
          "type": "address"
        },
        {
          "internalType": "uint256",
          "name": "royaltyAmount",
          "type": "uint256"
        }
      ],
      "stateMutability": "view",
      "type": "function"
    },
    {
      "inputs": [
        {
          "internalType": "address",
          "name": "from",
          "type": "address"
        },
        {
          "internalType": "address",
          "name": "to",
          "type": "address"
        },
        {
          "internalType": "uint256",
          "name": "tokenId",
          "type": "uint256"
        }
      ],
      "name": "safeTransferFrom",
      "outputs": [],
      "stateMutability": "nonpayable",
      "type": "function"
    },
    {
      "inputs": [
        {
          "internalType": "address",
          "name": "from",
          "type": "address"
        },
        {
          "internalType": "address",
          "name": "to",
          "type": "address"
        },
        {
          "internalType": "uint256",
          "name": "tokenId",
          "type": "uint256"
        },
        {
          "internalType": "bytes",
          "name": "_data",
          "type": "bytes"
        }
      ],
      "name": "safeTransferFrom",
      "outputs": [],
      "stateMutability": "nonpayable",
      "type": "function"
    },
    {
      "inputs": [
        {
          "internalType": "address",
          "name": "operator",
          "type": "address"
        },
        {
          "internalType": "bool",
          "name": "approved",
          "type": "bool"
        }
      ],
      "name": "setApprovalForAll",
      "outputs": [],
      "stateMutability": "nonpayable",
      "type": "function"
    },
    {
      "inputs": [
        {
          "components": [
            {
              "internalType": "string",
              "name": "placeholder",
              "type": "string"
            },
            {
              "internalType": "string",
              "name": "base",
              "type": "string"
            },
            {
              "internalType": "uint64",
              "name": "supply",
              "type": "uint64"
            },
            {
              "internalType": "bool",
              "name": "permanent",
              "type": "bool"
            }
          ],
          "internalType": "struct F0.Config",
          "name": "_config",
          "type": "tuple"
        }
      ],
      "name": "setConfig",
      "outputs": [],
      "stateMutability": "nonpayable",
      "type": "function"
    },
    {
      "inputs": [
        {
          "internalType": "bytes32",
          "name": "_key",
          "type": "bytes32"
        },
        {
          "internalType": "bytes32",
          "name": "_cid",
          "type": "bytes32"
        },
        {
          "components": [
            {
              "internalType": "uint128",
              "name": "price",
              "type": "uint128"
            },
            {
              "internalType": "uint64",
              "name": "start",
              "type": "uint64"
            },
            {
              "internalType": "uint64",
              "name": "limit",
              "type": "uint64"
            }
          ],
          "internalType": "struct F0.Invite",
          "name": "_invite",
          "type": "tuple"
        }
      ],
      "name": "setInvite",
      "outputs": [],
      "stateMutability": "nonpayable",
      "type": "function"
    },
    {
      "inputs": [
        {
          "components": [
            {
              "internalType": "bytes32",
              "name": "key",
              "type": "bytes32"
            },
            {
              "internalType": "bytes32",
              "name": "cid",
              "type": "bytes32"
            },
            {
              "components": [
                {
                  "internalType": "uint128",
                  "name": "price",
                  "type": "uint128"
                },
                {
                  "internalType": "uint64",
                  "name": "start",
                  "type": "uint64"
                },
                {
                  "internalType": "uint64",
                  "name": "limit",
                  "type": "uint64"
                }
              ],
              "internalType": "struct F0.Invite",
              "name": "invite",
              "type": "tuple"
            }
          ],
          "internalType": "struct F0.Invitelist[]",
          "name": "invitelist",
          "type": "tuple[]"
        }
      ],
      "name": "setInvites",
      "outputs": [],
      "stateMutability": "nonpayable",
      "type": "function"
    },
    {
      "inputs": [
        {
          "internalType": "string",
          "name": "name_",
          "type": "string"
        },
        {
          "internalType": "string",
          "name": "symbol_",
          "type": "string"
        }
      ],
      "name": "setNS",
      "outputs": [],
      "stateMutability": "nonpayable",
      "type": "function"
    },
    {
      "inputs": [
        {
          "internalType": "address",
          "name": "_address",
          "type": "address"
        }
      ],
      "name": "setRoyalty",
      "outputs": [],
      "stateMutability": "nonpayable",
      "type": "function"
    },
    {
      "inputs": [
        {
          "internalType": "string",
          "name": "_uri",
          "type": "string"
        }
      ],
      "name": "setURI",
      "outputs": [],
      "stateMutability": "nonpayable",
      "type": "function"
    },
    {
      "inputs": [
        {
          "components": [
            {
              "internalType": "address",
              "name": "account",
              "type": "address"
            },
            {
              "internalType": "bool",
              "name": "permanent",
              "type": "bool"
            }
          ],
          "internalType": "struct F0.Withdrawer",
          "name": "_withdrawer",
          "type": "tuple"
        }
      ],
      "name": "setWithdrawer",
      "outputs": [],
      "stateMutability": "nonpayable",
      "type": "function"
    },
    {
      "inputs": [
        {
          "internalType": "bytes4",
          "name": "interfaceId",
          "type": "bytes4"
        }
      ],
      "name": "supportsInterface",
      "outputs": [
        {
          "internalType": "bool",
          "name": "",
          "type": "bool"
        }
      ],
      "stateMutability": "view",
      "type": "function"
    },
    {
      "inputs": [],
      "name": "symbol",
      "outputs": [
        {
          "internalType": "string",
          "name": "",
          "type": "string"
        }
      ],
      "stateMutability": "view",
      "type": "function"
    },
    {
      "inputs": [
        {
          "internalType": "uint256",
          "name": "tokenId",
          "type": "uint256"
        }
      ],
      "name": "tokenURI",
      "outputs": [
        {
          "internalType": "string",
          "name": "",
          "type": "string"
        }
      ],
      "stateMutability": "view",
      "type": "function"
    },
    {
      "inputs": [
        {
          "internalType": "address",
          "name": "from",
          "type": "address"
        },
        {
          "internalType": "address",
          "name": "to",
          "type": "address"
        },
        {
          "internalType": "uint256",
          "name": "tokenId",
          "type": "uint256"
        }
      ],
      "name": "transferFrom",
      "outputs": [],
      "stateMutability": "nonpayable",
      "type": "function"
    },
    {
      "inputs": [
        {
          "internalType": "address",
          "name": "newOwner",
          "type": "address"
        }
      ],
      "name": "transferOwnership",
      "outputs": [],
      "stateMutability": "nonpayable",
      "type": "function"
    },
    {
      "inputs": [],
      "name": "withdraw",
      "outputs": [],
      "stateMutability": "payable",
      "type": "function"
    },
    {
      "inputs": [],
      "name": "withdrawer",
      "outputs": [
        {
          "internalType": "address",
          "name": "account",
          "type": "address"
        },
        {
          "internalType": "bool",
          "name": "permanent",
          "type": "bool"
        }
      ],
      "stateMutability": "view",
      "type": "function"
    }
  ],
  "bytecode": "0x608060405234801561001057600080fd5b5061696280620000216000396000f3fe6080604052600436106102045760003560e01c806357068f0a11610118578063a22cb465116100a0578063cbce4c971161006f578063cbce4c9714610739578063cdc1842414610762578063e4963dd51461078e578063e985e9c5146107b7578063f2fde38b146107f457610204565b8063a22cb4651461068e578063b774cf90146106b7578063b88d4fde146106d3578063c87b56dd146106fc57610204565b806370a08231116100e757806370a08231146105b6578063715018a6146105f357806379502c551461060a5780638da5cb5b1461063857806395d89b411461066357610204565b806357068f0a146104fc57806361b8ce8c146105255780636352211e146105505780636f5ba15a1461058d57610204565b806329ee566c1161019b57806335c938851161016a57806335c938851461044e5780633ccfd60b1461047757806342842e0e1461048157806342966c68146104aa5780634fc41a42146104d357610204565b806329ee566c146103935780632a55205a146103be5780632a6432a4146103fc5780632b2626781461042557610204565b8063095ea7b3116101d7578063095ea7b3146102d75780631141d7de14610300578063164ec6f51461032b57806323b872dd1461036a57610204565b806301ffc9a71461020957806302fe53051461024657806306fdde031461026f578063081812fc1461029a575b600080fd5b34801561021557600080fd5b50610230600480360381019061022b919061411b565b61081d565b60405161023d9190614daf565b60405180910390f35b34801561025257600080fd5b5061026d6004803603810190610268919061416d565b61085f565b005b34801561027b57600080fd5b506102846108f1565b6040516102919190614dca565b60405180910390f35b3480156102a657600080fd5b506102c160048036038101906102bc919061437c565b610983565b6040516102ce9190614cbf565b60405180910390f35b3480156102e357600080fd5b506102fe60048036038101906102f99190614022565b610a08565b005b34801561030c57600080fd5b50610315610b20565b6040516103229190614dca565b60405180910390f35b34801561033757600080fd5b50610352600480360381019061034d91906140a3565b610bae565b604051610361939291906152d3565b60405180910390f35b34801561037657600080fd5b50610391600480360381019061038c9190613f1c565b610c1c565b005b34801561039f57600080fd5b506103a8610c7c565b6040516103b59190614cbf565b60405180910390f35b3480156103ca57600080fd5b506103e560048036038101906103e091906143a5565b610ca2565b6040516103f3929190614d4f565b60405180910390f35b34801561040857600080fd5b50610423600480360381019061041e9190613e7b565b610e69565b005b34801561043157600080fd5b5061044c60048036038101906104479190614227565b610f7c565b005b34801561045a57600080fd5b50610475600480360381019061047091906141b2565b61107e565b005b61047f6111b2565b005b34801561048d57600080fd5b506104a860048036038101906104a39190613f1c565b611510565b005b3480156104b657600080fd5b506104d160048036038101906104cc919061437c565b611530565b005b3480156104df57600080fd5b506104fa60048036038101906104f59190614353565b61158c565b005b34801561050857600080fd5b50610523600480360381019061051e9190614312565b6116a7565b005b34801561053157600080fd5b5061053a6117c2565b604051610547919061530a565b60405180910390f35b34801561055c57600080fd5b506105776004803603810190610572919061437c565b6117c8565b6040516105849190614cbf565b60405180910390f35b34801561059957600080fd5b506105b460048036038101906105af919061405e565b61187a565b005b3480156105c257600080fd5b506105dd60048036038101906105d89190613e7b565b6119d3565b6040516105ea919061530a565b60405180910390f35b3480156105ff57600080fd5b50610608611a8b565b005b34801561061657600080fd5b5061061f611b13565b60405161062f9493929190614dec565b60405180910390f35b34801561064457600080fd5b5061064d611c62565b60405161065a9190614cbf565b60405180910390f35b34801561066f57600080fd5b50610678611c8c565b6040516106859190614dca565b60405180910390f35b34801561069a57600080fd5b506106b560048036038101906106b09190613fe6565b611d1e565b005b6106d160048036038101906106cc91906142be565b611e9f565b005b3480156106df57600080fd5b506106fa60048036038101906106f59190613f6b565b612277565b005b34801561070857600080fd5b50610723600480360381019061071e919061437c565b6122d9565b6040516107309190614dca565b60405180910390f35b34801561074557600080fd5b50610760600480360381019061075b9190614022565b61246a565b005b34801561076e57600080fd5b50610777612609565b604051610785929190614d26565b60405180910390f35b34801561079a57600080fd5b506107b560048036038101906107b091906140cc565b612648565b005b3480156107c357600080fd5b506107de60048036038101906107d99190613ee0565b61272e565b6040516107eb9190614daf565b60405180910390f35b34801561080057600080fd5b5061081b60048036038101906108169190613e7b565b6127c2565b005b6000632a55205a60e01b827bffffffffffffffffffffffffffffffffffffffffffffffffffffffff191614806108585750610857826128ba565b5b9050919050565b61086761299c565b73ffffffffffffffffffffffffffffffffffffffff16610885611c62565b73ffffffffffffffffffffffffffffffffffffffff16146108db576040517f08c379a00000000000000000000000000000000000000000000000000000000081526004016108d290615136565b60405180910390fd5b818160d091906108ec929190613ac5565b505050565b60606065805461090090615a98565b80601f016020809104026020016040519081016040528092919081815260200182805461092c90615a98565b80156109795780601f1061094e57610100808354040283529160200191610979565b820191906000526020600020905b81548152906001019060200180831161095c57829003601f168201915b5050505050905090565b600061098e826129a4565b6109cd576040517f08c379a00000000000000000000000000000000000000000000000000000000081526004016109c490615116565b60405180910390fd5b6069600083815260200190815260200160002060009054906101000a900473ffffffffffffffffffffffffffffffffffffffff169050919050565b6000610a13826117c8565b90508073ffffffffffffffffffffffffffffffffffffffff168373ffffffffffffffffffffffffffffffffffffffff161415610a84576040517f08c379a0000000000000000000000000000000000000000000000000000000008152600401610a7b90615196565b60405180910390fd5b8073ffffffffffffffffffffffffffffffffffffffff16610aa361299c565b73ffffffffffffffffffffffffffffffffffffffff161480610ad25750610ad181610acc61299c565b61272e565b5b610b11576040517f08c379a0000000000000000000000000000000000000000000000000000000008152600401610b0890615016565b60405180910390fd5b610b1b8383612a10565b505050565b60d08054610b2d90615a98565b80601f0160208091040260200160405190810160405280929190818152602001828054610b5990615a98565b8015610ba65780601f10610b7b57610100808354040283529160200191610ba6565b820191906000526020600020905b815481529060010190602001808311610b8957829003601f168201915b505050505081565b60c96020528060005260406000206000915090508060000160009054906101000a90046fffffffffffffffffffffffffffffffff16908060000160109054906101000a900467ffffffffffffffff16908060000160189054906101000a900467ffffffffffffffff16905083565b610c2d610c2761299c565b82612ac9565b610c6c576040517f08c379a0000000000000000000000000000000000000000000000000000000008152600401610c63906151b6565b60405180910390fd5b610c77838383612ba7565b505050565b60d160009054906101000a900473ffffffffffffffffffffffffffffffffffffffff1681565b600080600073ffffffffffffffffffffffffffffffffffffffff1660d160009054906101000a900473ffffffffffffffffffffffffffffffffffffffff1673ffffffffffffffffffffffffffffffffffffffff161415610d2a5760d160009054906101000a900473ffffffffffffffffffffffffffffffffffffffff16600091509150610e62565b600060d160009054906101000a900473ffffffffffffffffffffffffffffffffffffffff1673ffffffffffffffffffffffffffffffffffffffff16308686604051602401610d7a93929190614d78565b6040516020818303038152906040527f1941472a000000000000000000000000000000000000000000000000000000007bffffffffffffffffffffffffffffffffffffffffffffffffffffffff19166020820180517bffffffffffffffffffffffffffffffffffffffffffffffffffffffff8381831617835250505050604051610e049190614c64565b600060405180830381855afa9150503d8060008114610e3f576040519150601f19603f3d011682016040523d82523d6000602084013e610e44565b606091505b5091505080806020019051810190610e5c9190613ea4565b92509250505b9250929050565b610e7161299c565b73ffffffffffffffffffffffffffffffffffffffff16610e8f611c62565b73ffffffffffffffffffffffffffffffffffffffff1614610ee5576040517f08c379a0000000000000000000000000000000000000000000000000000000008152600401610edc90615136565b60405180910390fd5b60ca60020160089054906101000a900460ff1615610f38576040517f08c379a0000000000000000000000000000000000000000000000000000000008152600401610f2f90614f16565b60405180910390fd5b8060d160006101000a81548173ffffffffffffffffffffffffffffffffffffffff021916908373ffffffffffffffffffffffffffffffffffffffff16021790555050565b600060019054906101000a900460ff16610fa45760008054906101000a900460ff1615610fad565b610fac612e03565b5b610fec576040517f08c379a0000000000000000000000000000000000000000000000000000000008152600401610fe3906150b6565b60405180910390fd5b60008060019054906101000a900460ff16159050801561103c576001600060016101000a81548160ff02191690831515021790555060016000806101000a81548160ff0219169083151502179055505b6110468484612e14565b61104e612f14565b611057826116a7565b80156110785760008060016101000a81548160ff0219169083151502179055505b50505050565b61108661299c565b73ffffffffffffffffffffffffffffffffffffffff166110a4611c62565b73ffffffffffffffffffffffffffffffffffffffff16146110fa576040517f08c379a00000000000000000000000000000000000000000000000000000000081526004016110f190615136565b60405180910390fd5b60ca60020160089054906101000a900460ff161561114d576040517f08c379a000000000000000000000000000000000000000000000000000000000815260040161114490615176565b60405180910390fd5b83836065919061115e929190613ac5565b50818160669190611170929190613ac5565b507f934066d47a89bfcab72db908a0701b9145131ee303cefb44553121c73419e8dd606560666040516111a4929190614e3f565b60405180910390a150505050565b6111ba611c62565b73ffffffffffffffffffffffffffffffffffffffff166111d861299c565b73ffffffffffffffffffffffffffffffffffffffff161480611251575060cd60000160009054906101000a900473ffffffffffffffffffffffffffffffffffffffff1673ffffffffffffffffffffffffffffffffffffffff1661123961299c565b73ffffffffffffffffffffffffffffffffffffffff16145b611290576040517f08c379a000000000000000000000000000000000000000000000000000000000815260040161128790614e76565b60405180910390fd5b60004790506000670de0b6b3a764000060cf541015611308576064826112b691906155cb565b9050670de0b6b3a76400008160cf546112cf9190615575565b11156112ee5760cf54670de0b6b3a76400006112eb9190615656565b90505b8060cf60008282546113009190615575565b925050819055505b60008073ffffffffffffffffffffffffffffffffffffffff1660cd60000160009054906101000a900473ffffffffffffffffffffffffffffffffffffffff1673ffffffffffffffffffffffffffffffffffffffff161461138d5760cd60000160009054906101000a900473ffffffffffffffffffffffffffffffffffffffff16611396565b611395611c62565b5b73ffffffffffffffffffffffffffffffffffffffff1682846113b89190615656565b6040516113c490614caa565b60006040518083038185875af1925050503d8060008114611401576040519150601f19603f3d011682016040523d82523d6000602084013e611406565b606091505b505090508061144a576040517f08c379a0000000000000000000000000000000000000000000000000000000008152600401611441906151f6565b60405180910390fd5b600073502b2fe7cc3488fcff2e16158615af87b4ab5c4173ffffffffffffffffffffffffffffffffffffffff168360405161148490614caa565b60006040518083038185875af1925050503d80600081146114c1576040519150601f19603f3d011682016040523d82523d6000602084013e6114c6565b606091505b505090508061150a576040517f08c379a000000000000000000000000000000000000000000000000000000000815260040161150190615256565b60405180910390fd5b50505050565b61152b83838360405180602001604052806000815250612277565b505050565b61154161153b61299c565b82612ac9565b611580576040517f08c379a000000000000000000000000000000000000000000000000000000000815260040161157790614ff6565b60405180910390fd5b61158981612f6d565b50565b61159461299c565b73ffffffffffffffffffffffffffffffffffffffff166115b2611c62565b73ffffffffffffffffffffffffffffffffffffffff1614611608576040517f08c379a00000000000000000000000000000000000000000000000000000000081526004016115ff90615136565b60405180910390fd5b60cd60000160149054906101000a900460ff161561165b576040517f08c379a000000000000000000000000000000000000000000000000000000000815260040161165290614f56565b60405180910390fd5b8060cd818161166a9190616728565b9050507f5d121f0c2b2c4877a2b0a1457c73ce1c28628e5705271cb91db3e49792715cf58160405161169c91906152b8565b60405180910390a150565b6116af61299c565b73ffffffffffffffffffffffffffffffffffffffff166116cd611c62565b73ffffffffffffffffffffffffffffffffffffffff1614611723576040517f08c379a000000000000000000000000000000000000000000000000000000000815260040161171a90615136565b60405180910390fd5b60ca60020160089054906101000a900460ff1615611776576040517f08c379a000000000000000000000000000000000000000000000000000000000815260040161176d906151d6565b60405180910390fd5b8060ca8181611785919061670c565b9050507f4363c3792b29c84c812e55c3980736e603dd322c6558532d35d39eb614d00749816040516117b79190615296565b60405180910390a150565b60ce5481565b6000806067600084815260200190815260200160002060009054906101000a900473ffffffffffffffffffffffffffffffffffffffff169050600073ffffffffffffffffffffffffffffffffffffffff168173ffffffffffffffffffffffffffffffffffffffff161415611871576040517f08c379a000000000000000000000000000000000000000000000000000000000815260040161186890615056565b60405180910390fd5b80915050919050565b61188261299c565b73ffffffffffffffffffffffffffffffffffffffff166118a0611c62565b73ffffffffffffffffffffffffffffffffffffffff16146118f6576040517f08c379a00000000000000000000000000000000000000000000000000000000081526004016118ed90615136565b60405180910390fd5b600060ce54141561190a57600160ce819055505b60005b828290508110156119ce5736838383818110611952577f4e487b7100000000000000000000000000000000000000000000000000000000600052603260045260246000fd5b905060a0020190508060400160c96000836000013581526020019081526020016000208181611981919061671a565b905050806020013581600001357fe9a0c17645ed78ccc9996259f00297ffc75e6b9d22cd605ccc9992cc8ca3f4c160405160405180910390a35080806119c690615b17565b91505061190d565b505050565b60008073ffffffffffffffffffffffffffffffffffffffff168273ffffffffffffffffffffffffffffffffffffffff161415611a44576040517f08c379a0000000000000000000000000000000000000000000000000000000008152600401611a3b90615036565b60405180910390fd5b606860008373ffffffffffffffffffffffffffffffffffffffff1673ffffffffffffffffffffffffffffffffffffffff168152602001908152602001600020549050919050565b611a9361299c565b73ffffffffffffffffffffffffffffffffffffffff16611ab1611c62565b73ffffffffffffffffffffffffffffffffffffffff1614611b07576040517f08c379a0000000000000000000000000000000000000000000000000000000008152600401611afe90615136565b60405180910390fd5b611b11600061307e565b565b60ca806000018054611b2490615a98565b80601f0160208091040260200160405190810160405280929190818152602001828054611b5090615a98565b8015611b9d5780601f10611b7257610100808354040283529160200191611b9d565b820191906000526020600020905b815481529060010190602001808311611b8057829003601f168201915b505050505090806001018054611bb290615a98565b80601f0160208091040260200160405190810160405280929190818152602001828054611bde90615a98565b8015611c2b5780601f10611c0057610100808354040283529160200191611c2b565b820191906000526020600020905b815481529060010190602001808311611c0e57829003601f168201915b5050505050908060020160009054906101000a900467ffffffffffffffff16908060020160089054906101000a900460ff16905084565b6000609760009054906101000a900473ffffffffffffffffffffffffffffffffffffffff16905090565b606060668054611c9b90615a98565b80601f0160208091040260200160405190810160405280929190818152602001828054611cc790615a98565b8015611d145780601f10611ce957610100808354040283529160200191611d14565b820191906000526020600020905b815481529060010190602001808311611cf757829003601f168201915b5050505050905090565b611d2661299c565b73ffffffffffffffffffffffffffffffffffffffff168273ffffffffffffffffffffffffffffffffffffffff161415611d94576040517f08c379a0000000000000000000000000000000000000000000000000000000008152600401611d8b90614f96565b60405180910390fd5b80606a6000611da161299c565b73ffffffffffffffffffffffffffffffffffffffff1673ffffffffffffffffffffffffffffffffffffffff16815260200190815260200160002060008473ffffffffffffffffffffffffffffffffffffffff1673ffffffffffffffffffffffffffffffffffffffff16815260200190815260200160002060006101000a81548160ff0219169083151502179055508173ffffffffffffffffffffffffffffffffffffffff16611e4e61299c565b73ffffffffffffffffffffffffffffffffffffffff167f17307eab39ab6107e8899845ad3d59bd9653f200f220920489ca2b5937696c3183604051611e939190614daf565b60405180910390a35050565b600060ce549050600060c96000856000013581526020019081526020016000206040518060600160405290816000820160009054906101000a90046fffffffffffffffffffffffffffffffff166fffffffffffffffffffffffffffffffff166fffffffffffffffffffffffffffffffff1681526020016000820160109054906101000a900467ffffffffffffffff1667ffffffffffffffff1667ffffffffffffffff1681526020016000820160189054906101000a900467ffffffffffffffff1667ffffffffffffffff1667ffffffffffffffff16815250509050611f8b84611f8661299c565b613144565b611fca576040517f08c379a0000000000000000000000000000000000000000000000000000000008152600401611fc190614fb6565b60405180910390fd5b348382600001516fffffffffffffffffffffffffffffffff16611fed91906155fc565b1461202d576040517f08c379a000000000000000000000000000000000000000000000000000000000815260040161202490615276565b60405180910390fd5b42816020015167ffffffffffffffff16111561207e576040517f08c379a000000000000000000000000000000000000000000000000000000000815260040161207590615216565b60405180910390fd5b806040015167ffffffffffffffff168360d2600061209a61299c565b73ffffffffffffffffffffffffffffffffffffffff1673ffffffffffffffffffffffffffffffffffffffff168152602001908152602001600020600087600001358152602001908152602001600020546120f49190615575565b1115612135576040517f08c379a000000000000000000000000000000000000000000000000000000000815260040161212c90614e96565b60405180910390fd5b60ca60020160009054906101000a900467ffffffffffffffff1667ffffffffffffffff16600184846121679190615575565b6121719190615656565b11156121b2576040517f08c379a00000000000000000000000000000000000000000000000000000000081526004016121a990615076565b60405180910390fd5b60005b838110156121ec576121d96121c861299c565b82856121d49190615575565b61327d565b80806121e490615b17565b9150506121b5565b5082826121f99190615575565b60ce819055508260d2600061220c61299c565b73ffffffffffffffffffffffffffffffffffffffff1673ffffffffffffffffffffffffffffffffffffffff168152602001908152602001600020600086600001358152602001908152602001600020600082825461226a9190615575565b9250508190555050505050565b61228861228261299c565b83612ac9565b6122c7576040517f08c379a00000000000000000000000000000000000000000000000000000000081526004016122be906151b6565b60405180910390fd5b6122d38484848461329b565b50505050565b606060008211801561230e575060ca60020160009054906101000a900467ffffffffffffffff1667ffffffffffffffff168211155b61234d576040517f08c379a000000000000000000000000000000000000000000000000000000000815260040161234490614eb6565b60405180910390fd5b600060ca600101805461235f90615a98565b9050111561239c5760ca600101612375836132f7565b604051602001612386929190614c7b565b6040516020818303038152906040529050612465565b600060ca60000180546123ae90615a98565b9050116123d3576040518060800160405280604281526020016168eb60429139612462565b60ca60000180546123e390615a98565b80601f016020809104026020016040519081016040528092919081815260200182805461240f90615a98565b801561245c5780601f106124315761010080835404028352916020019161245c565b820191906000526020600020905b81548152906001019060200180831161243f57829003601f168201915b50505050505b90505b919050565b61247261299c565b73ffffffffffffffffffffffffffffffffffffffff16612490611c62565b73ffffffffffffffffffffffffffffffffffffffff16146124e6576040517f08c379a00000000000000000000000000000000000000000000000000000000081526004016124dd90615136565b60405180910390fd5b60008060ce54116124f85760016124fc565b60ce545b905060008211612541576040517f08c379a0000000000000000000000000000000000000000000000000000000008152600401612538906150d6565b60405180910390fd5b60ca60020160009054906101000a900467ffffffffffffffff1667ffffffffffffffff16600183836125739190615575565b61257d9190615656565b11156125be576040517f08c379a00000000000000000000000000000000000000000000000000000000081526004016125b590615096565b60405180910390fd5b60005b828110156125f1576125de8482846125d99190615575565b61327d565b80806125e990615b17565b9150506125c1565b5081816125fe9190615575565b60ce81905550505050565b60cd8060000160009054906101000a900473ffffffffffffffffffffffffffffffffffffffff16908060000160149054906101000a900460ff16905082565b61265061299c565b73ffffffffffffffffffffffffffffffffffffffff1661266e611c62565b73ffffffffffffffffffffffffffffffffffffffff16146126c4576040517f08c379a00000000000000000000000000000000000000000000000000000000081526004016126bb90615136565b60405180910390fd5b600060ce5414156126d857600160ce819055505b8060c9600085815260200190815260200160002081816126f8919061671a565b90505081837fe9a0c17645ed78ccc9996259f00297ffc75e6b9d22cd605ccc9992cc8ca3f4c160405160405180910390a3505050565b6000606a60008473ffffffffffffffffffffffffffffffffffffffff1673ffffffffffffffffffffffffffffffffffffffff16815260200190815260200160002060008373ffffffffffffffffffffffffffffffffffffffff1673ffffffffffffffffffffffffffffffffffffffff16815260200190815260200160002060009054906101000a900460ff16905092915050565b6127ca61299c565b73ffffffffffffffffffffffffffffffffffffffff166127e8611c62565b73ffffffffffffffffffffffffffffffffffffffff161461283e576040517f08c379a000000000000000000000000000000000000000000000000000000000815260040161283590615136565b60405180910390fd5b600073ffffffffffffffffffffffffffffffffffffffff168173ffffffffffffffffffffffffffffffffffffffff1614156128ae576040517f08c379a00000000000000000000000000000000000000000000000000000000081526004016128a590614ef6565b60405180910390fd5b6128b78161307e565b50565b60007f80ac58cd000000000000000000000000000000000000000000000000000000007bffffffffffffffffffffffffffffffffffffffffffffffffffffffff1916827bffffffffffffffffffffffffffffffffffffffffffffffffffffffff1916148061298557507f5b5e139f000000000000000000000000000000000000000000000000000000007bffffffffffffffffffffffffffffffffffffffffffffffffffffffff1916827bffffffffffffffffffffffffffffffffffffffffffffffffffffffff1916145b8061299557506129948261345c565b5b9050919050565b600033905090565b60008073ffffffffffffffffffffffffffffffffffffffff166067600084815260200190815260200160002060009054906101000a900473ffffffffffffffffffffffffffffffffffffffff1673ffffffffffffffffffffffffffffffffffffffff1614159050919050565b816069600083815260200190815260200160002060006101000a81548173ffffffffffffffffffffffffffffffffffffffff021916908373ffffffffffffffffffffffffffffffffffffffff160217905550808273ffffffffffffffffffffffffffffffffffffffff16612a83836117c8565b73ffffffffffffffffffffffffffffffffffffffff167f8c5be1e5ebec7d5bd14f71427d1e84f3dd0314c0f7b2291e5b200ac8c7c3b92560405160405180910390a45050565b6000612ad4826129a4565b612b13576040517f08c379a0000000000000000000000000000000000000000000000000000000008152600401612b0a90614fd6565b60405180910390fd5b6000612b1e836117c8565b90508073ffffffffffffffffffffffffffffffffffffffff168473ffffffffffffffffffffffffffffffffffffffff161480612b8d57508373ffffffffffffffffffffffffffffffffffffffff16612b7584610983565b73ffffffffffffffffffffffffffffffffffffffff16145b80612b9e5750612b9d818561272e565b5b91505092915050565b8273ffffffffffffffffffffffffffffffffffffffff16612bc7826117c8565b73ffffffffffffffffffffffffffffffffffffffff1614612c1d576040517f08c379a0000000000000000000000000000000000000000000000000000000008152600401612c1490615156565b60405180910390fd5b600073ffffffffffffffffffffffffffffffffffffffff168273ffffffffffffffffffffffffffffffffffffffff161415612c8d576040517f08c379a0000000000000000000000000000000000000000000000000000000008152600401612c8490614f76565b60405180910390fd5b612c988383836134c6565b612ca3600082612a10565b6001606860008573ffffffffffffffffffffffffffffffffffffffff1673ffffffffffffffffffffffffffffffffffffffff1681526020019081526020016000206000828254612cf39190615656565b925050819055506001606860008473ffffffffffffffffffffffffffffffffffffffff1673ffffffffffffffffffffffffffffffffffffffff1681526020019081526020016000206000828254612d4a9190615575565b92505081905550816067600083815260200190815260200160002060006101000a81548173ffffffffffffffffffffffffffffffffffffffff021916908373ffffffffffffffffffffffffffffffffffffffff160217905550808273ffffffffffffffffffffffffffffffffffffffff168473ffffffffffffffffffffffffffffffffffffffff167fddf252ad1be2c89b69c2b068fc378daa952ba7f163c4a11628f55a4df523b3ef60405160405180910390a4505050565b6000612e0e306134cb565b15905090565b600060019054906101000a900460ff16612e3c5760008054906101000a900460ff1615612e45565b612e44612e03565b5b612e84576040517f08c379a0000000000000000000000000000000000000000000000000000000008152600401612e7b906150b6565b60405180910390fd5b60008060019054906101000a900460ff161590508015612ed4576001600060016101000a81548160ff02191690831515021790555060016000806101000a81548160ff0219169083151502179055505b612edc6134ee565b612ee461353f565b612eee8383613590565b8015612f0f5760008060016101000a81548160ff0219169083151502179055505b505050565b600060019054906101000a900460ff16612f63576040517f08c379a0000000000000000000000000000000000000000000000000000000008152600401612f5a90615236565b60405180910390fd5b612f6b6136a4565b565b6000612f78826117c8565b9050612f86816000846134c6565b612f91600083612a10565b6001606860008373ffffffffffffffffffffffffffffffffffffffff1673ffffffffffffffffffffffffffffffffffffffff1681526020019081526020016000206000828254612fe19190615656565b925050819055506067600083815260200190815260200160002060006101000a81549073ffffffffffffffffffffffffffffffffffffffff021916905581600073ffffffffffffffffffffffffffffffffffffffff168273ffffffffffffffffffffffffffffffffffffffff167fddf252ad1be2c89b69c2b068fc378daa952ba7f163c4a11628f55a4df523b3ef60405160405180910390a45050565b6000609760009054906101000a900473ffffffffffffffffffffffffffffffffffffffff16905081609760006101000a81548173ffffffffffffffffffffffffffffffffffffffff021916908373ffffffffffffffffffffffffffffffffffffffff1602179055508173ffffffffffffffffffffffffffffffffffffffff168173ffffffffffffffffffffffffffffffffffffffff167f8be0079c531659141344cd1fd0a4f28419497f9722a3daafe3b4186f6b6457e060405160405180910390a35050565b6000808360000135141561315b5760019050613277565b60008260405160200161316e9190614c1d565b60405160208183030381529060405280519060200120905060005b8480602001906131999190615325565b905081101561326b5760008580602001906131b49190615325565b838181106131eb577f4e487b7100000000000000000000000000000000000000000000000000000000600052603260045260246000fd5b90506020020135905080831161322b57828160405160200161320e929190614c38565b604051602081830303815290604052805190602001209250613257565b808360405160200161323e929190614c38565b6040516020818303038152906040528051906020012092505b50808061326390615b17565b915050613189565b50836000013581149150505b92915050565b613297828260405180602001604052806000815250613705565b5050565b6132a6848484612ba7565b6132b284848484613760565b6132f1576040517f08c379a00000000000000000000000000000000000000000000000000000000081526004016132e890614ed6565b60405180910390fd5b50505050565b6060600082905060005b6000821461332b57808061331490615b17565b915050600a8261332491906155cb565b9150613301565b60008167ffffffffffffffff81111561336d577f4e487b7100000000000000000000000000000000000000000000000000000000600052604160045260246000fd5b6040519080825280601f01601f19166020018201604052801561339f5781602001600182028036833780820191505090505b5090505b600085146134515781806133b690615a6e565b925050600a856133c69190615bac565b60306133d29190615575565b60f81b81838151811061340e577f4e487b7100000000000000000000000000000000000000000000000000000000600052603260045260246000fd5b60200101907effffffffffffffffffffffffffffffffffffffffffffffffffffffffffffff1916908160001a905350600a8561344a91906155cb565b94506133a3565b809350505050919050565b60007f01ffc9a7000000000000000000000000000000000000000000000000000000007bffffffffffffffffffffffffffffffffffffffffffffffffffffffff1916827bffffffffffffffffffffffffffffffffffffffffffffffffffffffff1916149050919050565b505050565b6000808273ffffffffffffffffffffffffffffffffffffffff163b119050919050565b600060019054906101000a900460ff1661353d576040517f08c379a000000000000000000000000000000000000000000000000000000000815260040161353490615236565b60405180910390fd5b565b600060019054906101000a900460ff1661358e576040517f08c379a000000000000000000000000000000000000000000000000000000000815260040161358590615236565b60405180910390fd5b565b600060019054906101000a900460ff166135b85760008054906101000a900460ff16156135c1565b6135c0612e03565b5b613600576040517f08c379a00000000000000000000000000000000000000000000000000000000081526004016135f7906150b6565b60405180910390fd5b60008060019054906101000a900460ff161590508015613650576001600060016101000a81548160ff02191690831515021790555060016000806101000a81548160ff0219169083151502179055505b8260659080519060200190613666929190613b4b565b50816066908051906020019061367d929190613b4b565b50801561369f5760008060016101000a81548160ff0219169083151502179055505b505050565b600060019054906101000a900460ff166136f3576040517f08c379a00000000000000000000000000000000000000000000000000000000081526004016136ea90615236565b60405180910390fd5b6137036136fe61299c565b61307e565b565b61370f83836138f7565b61371c6000848484613760565b61375b576040517f08c379a000000000000000000000000000000000000000000000000000000000815260040161375290614ed6565b60405180910390fd5b505050565b60006137818473ffffffffffffffffffffffffffffffffffffffff166134cb565b156138ea578373ffffffffffffffffffffffffffffffffffffffff1663150b7a026137aa61299c565b8786866040518563ffffffff1660e01b81526004016137cc9493929190614cda565b602060405180830381600087803b1580156137e657600080fd5b505af192505050801561381757506040513d601f19601f820116820180604052508101906138149190614144565b60015b61389a573d8060008114613847576040519150601f19603f3d011682016040523d82523d6000602084013e61384c565b606091505b50600081511415613892576040517f08c379a000000000000000000000000000000000000000000000000000000000815260040161388990614ed6565b60405180910390fd5b805181602001fd5b63150b7a0260e01b7bffffffffffffffffffffffffffffffffffffffffffffffffffffffff1916817bffffffffffffffffffffffffffffffffffffffffffffffffffffffff1916149150506138ef565b600190505b949350505050565b600073ffffffffffffffffffffffffffffffffffffffff168273ffffffffffffffffffffffffffffffffffffffff161415613967576040517f08c379a000000000000000000000000000000000000000000000000000000000815260040161395e906150f6565b60405180910390fd5b613970816129a4565b156139b0576040517f08c379a00000000000000000000000000000000000000000000000000000000081526004016139a790614f36565b60405180910390fd5b6139bc600083836134c6565b6001606860008473ffffffffffffffffffffffffffffffffffffffff1673ffffffffffffffffffffffffffffffffffffffff1681526020019081526020016000206000828254613a0c9190615575565b92505081905550816067600083815260200190815260200160002060006101000a81548173ffffffffffffffffffffffffffffffffffffffff021916908373ffffffffffffffffffffffffffffffffffffffff160217905550808273ffffffffffffffffffffffffffffffffffffffff16600073ffffffffffffffffffffffffffffffffffffffff167fddf252ad1be2c89b69c2b068fc378daa952ba7f163c4a11628f55a4df523b3ef60405160405180910390a45050565b828054613ad190615a98565b90600052602060002090601f016020900481019282613af35760008555613b3a565b82601f10613b0c57803560ff1916838001178555613b3a565b82800160010185558215613b3a579182015b82811115613b39578235825591602001919060010190613b1e565b5b509050613b479190613bd1565b5090565b828054613b5790615a98565b90600052602060002090601f016020900481019282613b795760008555613bc0565b82601f10613b9257805160ff1916838001178555613bc0565b82800160010185558215613bc0579182015b82811115613bbf578251825591602001919060010190613ba4565b5b509050613bcd9190613bd1565b5090565b5b80821115613bea576000816000905550600101613bd2565b5090565b6000613c01613bfc846153f8565b6153d3565b905082815260208101848484011115613c1957600080fd5b613c248482856158f7565b509392505050565b6000613c3f613c3a84615429565b6153d3565b905082815260208101848484011115613c5757600080fd5b613c628482856158f7565b509392505050565b600081359050613c798161682d565b92915050565b600081519050613c8e81616844565b92915050565b60008083601f840112613ca657600080fd5b8235905067ffffffffffffffff811115613cbf57600080fd5b6020830191508360a0820283011115613cd757600080fd5b9250929050565b600081359050613ced8161685b565b92915050565b600081359050613d0281616872565b92915050565b600081359050613d1781616889565b92915050565b600081519050613d2c81616889565b92915050565b600082601f830112613d4357600080fd5b8135613d53848260208601613bee565b91505092915050565b60008083601f840112613d6e57600080fd5b8235905067ffffffffffffffff811115613d8757600080fd5b602083019150836001820283011115613d9f57600080fd5b9250929050565b600082601f830112613db757600080fd5b8135613dc7848260208601613c2c565b91505092915050565b600060408284031215613de257600080fd5b81905092915050565b600060808284031215613dfd57600080fd5b81905092915050565b600060608284031215613e1857600080fd5b81905092915050565b600060408284031215613e3357600080fd5b81905092915050565b600081359050613e4b816168b7565b92915050565b600081519050613e60816168b7565b92915050565b600081359050613e75816168ce565b92915050565b600060208284031215613e8d57600080fd5b6000613e9b84828501613c6a565b91505092915050565b60008060408385031215613eb757600080fd5b6000613ec585828601613c7f565b9250506020613ed685828601613e51565b9150509250929050565b60008060408385031215613ef357600080fd5b6000613f0185828601613c6a565b9250506020613f1285828601613c6a565b9150509250929050565b600080600060608486031215613f3157600080fd5b6000613f3f86828701613c6a565b9350506020613f5086828701613c6a565b9250506040613f6186828701613e3c565b9150509250925092565b60008060008060808587031215613f8157600080fd5b6000613f8f87828801613c6a565b9450506020613fa087828801613c6a565b9350506040613fb187828801613e3c565b925050606085013567ffffffffffffffff811115613fce57600080fd5b613fda87828801613d32565b91505092959194509250565b60008060408385031215613ff957600080fd5b600061400785828601613c6a565b925050602061401885828601613cde565b9150509250929050565b6000806040838503121561403557600080fd5b600061404385828601613c6a565b925050602061405485828601613e3c565b9150509250929050565b6000806020838503121561407157600080fd5b600083013567ffffffffffffffff81111561408b57600080fd5b61409785828601613c94565b92509250509250929050565b6000602082840312156140b557600080fd5b60006140c384828501613cf3565b91505092915050565b600080600060a084860312156140e157600080fd5b60006140ef86828701613cf3565b935050602061410086828701613cf3565b925050604061411186828701613e06565b9150509250925092565b60006020828403121561412d57600080fd5b600061413b84828501613d08565b91505092915050565b60006020828403121561415657600080fd5b600061416484828501613d1d565b91505092915050565b6000806020838503121561418057600080fd5b600083013567ffffffffffffffff81111561419a57600080fd5b6141a685828601613d5c565b92509250509250929050565b600080600080604085870312156141c857600080fd5b600085013567ffffffffffffffff8111156141e257600080fd5b6141ee87828801613d5c565b9450945050602085013567ffffffffffffffff81111561420d57600080fd5b61421987828801613d5c565b925092505092959194509250565b60008060006060848603121561423c57600080fd5b600084013567ffffffffffffffff81111561425657600080fd5b61426286828701613da6565b935050602084013567ffffffffffffffff81111561427f57600080fd5b61428b86828701613da6565b925050604084013567ffffffffffffffff8111156142a857600080fd5b6142b486828701613deb565b9150509250925092565b600080604083850312156142d157600080fd5b600083013567ffffffffffffffff8111156142eb57600080fd5b6142f785828601613dd0565b925050602061430885828601613e3c565b9150509250929050565b60006020828403121561432457600080fd5b600082013567ffffffffffffffff81111561433e57600080fd5b61434a84828501613deb565b91505092915050565b60006040828403121561436557600080fd5b600061437384828501613e21565b91505092915050565b60006020828403121561438e57600080fd5b600061439c84828501613e3c565b91505092915050565b600080604083850312156143b857600080fd5b60006143c685828601613e3c565b92505060206143d785828601613e3c565b9150509250929050565b6143ea8161568a565b82525050565b6143f98161568a565b82525050565b61441061440b8261568a565b615b60565b82525050565b61441f816156ae565b82525050565b61442e816156ae565b82525050565b614445614440826156ba565b615b72565b82525050565b60006144568261546f565b6144608185615490565b9350614470818560208601615906565b61447981615d23565b840191505092915050565b600061448f8261546f565b61449981856154a1565b93506144a9818560208601615906565b80840191505092915050565b60006144c183856154ac565b93506144ce8385846158f7565b6144d783615d23565b840190509392505050565b60006144ed82615485565b6144f781856154bd565b9350614507818560208601615906565b61451081615d23565b840191505092915050565b600061452682615485565b61453081856154ce565b9350614540818560208601615906565b80840191505092915050565b6000815461455981615a98565b61456381866154bd565b9450600182166000811461457e5760018114614590576145c3565b60ff19831686526020860193506145c3565b6145998561545a565b60005b838110156145bb5781548189015260018201915060208101905061459c565b808801955050505b50505092915050565b600081546145d981615a98565b6145e381866154ce565b945060018216600081146145fe576001811461460f57614642565b60ff19831686528186019350614642565b6146188561545a565b60005b8381101561463a5781548189015260018201915060208101905061461b565b838801955050505b50505092915050565b60006146586001836154bd565b915061466382615db4565b602082019050919050565b600061467b6002836154bd565b915061468682615ddd565b602082019050919050565b600061469e6002836154bd565b91506146a982615e06565b602082019050919050565b60006146c16032836154bd565b91506146cc82615e2f565b604082019050919050565b60006146e46026836154bd565b91506146ef82615e7e565b604082019050919050565b60006147076002836154bd565b915061471282615ecd565b602082019050919050565b600061472a601c836154bd565b915061473582615ef6565b602082019050919050565b600061474d6001836154bd565b915061475882615f1f565b602082019050919050565b60006147706024836154bd565b915061477b82615f48565b604082019050919050565b60006147936019836154bd565b915061479e82615f97565b602082019050919050565b60006147b66001836154bd565b91506147c182615fc0565b602082019050919050565b60006147d9602c836154bd565b91506147e482615fe9565b604082019050919050565b60006147fc6002836154bd565b915061480782616038565b602082019050919050565b600061481f6038836154bd565b915061482a82616061565b604082019050919050565b6000614842602a836154bd565b915061484d826160b0565b604082019050919050565b60006148656029836154bd565b9150614870826160ff565b604082019050919050565b60006148886002836154bd565b91506148938261614e565b602082019050919050565b60006148ab6002836154bd565b91506148b682616177565b602082019050919050565b60006148ce602e836154bd565b91506148d9826161a0565b604082019050919050565b60006148f16002836154bd565b91506148fc826161ef565b602082019050919050565b60006149146020836154bd565b915061491f82616218565b602082019050919050565b6000614937602c836154bd565b915061494282616241565b604082019050919050565b600061495a6005836154ce565b915061496582616290565b600582019050919050565b600061497d6020836154bd565b9150614988826162b9565b602082019050919050565b60006149a06029836154bd565b91506149ab826162e2565b604082019050919050565b60006149c36001836154bd565b91506149ce82616331565b602082019050919050565b60006149e66021836154bd565b91506149f18261635a565b604082019050919050565b6000614a096000836154a1565b9150614a14826163a9565b600082019050919050565b6000614a2c6031836154bd565b9150614a37826163ac565b604082019050919050565b6000614a4f6001836154bd565b9150614a5a826163fb565b602082019050919050565b6000614a726001836154bd565b9150614a7d82616424565b602082019050919050565b6000614a956001836154bd565b9150614aa08261644d565b602082019050919050565b6000614ab8602b836154bd565b9150614ac382616476565b604082019050919050565b6000614adb6001836154bd565b9150614ae6826164c5565b602082019050919050565b6000614afe6001836154bd565b9150614b09826164ee565b602082019050919050565b600060808301614b276000840184615507565b8583036000870152614b3a8382846144b5565b92505050614b4b6020840184615507565b8583036020870152614b5e8382846144b5565b92505050614b6f604084018461555e565b614b7c6040860182614bff565b50614b8a60608401846154f0565b614b976060860182614416565b508091505092915050565b60408201614bb360008301836154d9565b614bc060008501826143e1565b50614bce60208301836154f0565b614bdb6020850182614416565b50505050565b614bea816156f0565b82525050565b614bf98161572c565b82525050565b614c0881615736565b82525050565b614c1781615736565b82525050565b6000614c2982846143ff565b60148201915081905092915050565b6000614c448285614434565b602082019150614c548284614434565b6020820191508190509392505050565b6000614c708284614484565b915081905092915050565b6000614c8782856145cc565b9150614c93828461451b565b9150614c9e8261494d565b91508190509392505050565b6000614cb5826149fc565b9150819050919050565b6000602082019050614cd460008301846143f0565b92915050565b6000608082019050614cef60008301876143f0565b614cfc60208301866143f0565b614d096040830185614bf0565b8181036060830152614d1b818461444b565b905095945050505050565b6000604082019050614d3b60008301856143f0565b614d486020830184614425565b9392505050565b6000604082019050614d6460008301856143f0565b614d716020830184614bf0565b9392505050565b6000606082019050614d8d60008301866143f0565b614d9a6020830185614bf0565b614da76040830184614bf0565b949350505050565b6000602082019050614dc46000830184614425565b92915050565b60006020820190508181036000830152614de481846144e2565b905092915050565b60006080820190508181036000830152614e0681876144e2565b90508181036020830152614e1a81866144e2565b9050614e296040830185614c0e565b614e366060830184614425565b95945050505050565b60006040820190508181036000830152614e59818561454c565b90508181036020830152614e6d818461454c565b90509392505050565b60006020820190508181036000830152614e8f8161464b565b9050919050565b60006020820190508181036000830152614eaf8161466e565b9050919050565b60006020820190508181036000830152614ecf81614691565b9050919050565b60006020820190508181036000830152614eef816146b4565b9050919050565b60006020820190508181036000830152614f0f816146d7565b9050919050565b60006020820190508181036000830152614f2f816146fa565b9050919050565b60006020820190508181036000830152614f4f8161471d565b9050919050565b60006020820190508181036000830152614f6f81614740565b9050919050565b60006020820190508181036000830152614f8f81614763565b9050919050565b60006020820190508181036000830152614faf81614786565b9050919050565b60006020820190508181036000830152614fcf816147a9565b9050919050565b60006020820190508181036000830152614fef816147cc565b9050919050565b6000602082019050818103600083015261500f816147ef565b9050919050565b6000602082019050818103600083015261502f81614812565b9050919050565b6000602082019050818103600083015261504f81614835565b9050919050565b6000602082019050818103600083015261506f81614858565b9050919050565b6000602082019050818103600083015261508f8161487b565b9050919050565b600060208201905081810360008301526150af8161489e565b9050919050565b600060208201905081810360008301526150cf816148c1565b9050919050565b600060208201905081810360008301526150ef816148e4565b9050919050565b6000602082019050818103600083015261510f81614907565b9050919050565b6000602082019050818103600083015261512f8161492a565b9050919050565b6000602082019050818103600083015261514f81614970565b9050919050565b6000602082019050818103600083015261516f81614993565b9050919050565b6000602082019050818103600083015261518f816149b6565b9050919050565b600060208201905081810360008301526151af816149d9565b9050919050565b600060208201905081810360008301526151cf81614a1f565b9050919050565b600060208201905081810360008301526151ef81614a42565b9050919050565b6000602082019050818103600083015261520f81614a65565b9050919050565b6000602082019050818103600083015261522f81614a88565b9050919050565b6000602082019050818103600083015261524f81614aab565b9050919050565b6000602082019050818103600083015261526f81614ace565b9050919050565b6000602082019050818103600083015261528f81614af1565b9050919050565b600060208201905081810360008301526152b08184614b14565b905092915050565b60006040820190506152cd6000830184614ba2565b92915050565b60006060820190506152e86000830186614be1565b6152f56020830185614c0e565b6153026040830184614c0e565b949350505050565b600060208201905061531f6000830184614bf0565b92915050565b6000808335600160200384360303811261533e57600080fd5b80840192508235915067ffffffffffffffff82111561535c57600080fd5b60208301925060208202360383131561537457600080fd5b509250929050565b6000808335600160200384360303811261539557600080fd5b80840192508235915067ffffffffffffffff8211156153b357600080fd5b6020830192506001820236038313156153cb57600080fd5b509250929050565b60006153dd6153ee565b90506153e98282615ae6565b919050565b6000604051905090565b600067ffffffffffffffff82111561541357615412615c6a565b5b61541c82615d23565b9050602081019050919050565b600067ffffffffffffffff82111561544457615443615c6a565b5b61544d82615d23565b9050602081019050919050565b60008190508160005260206000209050919050565b600081519050919050565b600082905092915050565b600081519050919050565b600082825260208201905092915050565b600081905092915050565b600082825260208201905092915050565b600082825260208201905092915050565b600081905092915050565b60006154e86020840184613c6a565b905092915050565b60006154ff6020840184613cde565b905092915050565b6000808335600160200384360303811261552057600080fd5b83810192508235915060208301925067ffffffffffffffff82111561554457600080fd5b60018202360384131561555657600080fd5b509250929050565b600061556d6020840184613e66565b905092915050565b60006155808261572c565b915061558b8361572c565b9250827fffffffffffffffffffffffffffffffffffffffffffffffffffffffffffffffff038211156155c0576155bf615bdd565b5b828201905092915050565b60006155d68261572c565b91506155e18361572c565b9250826155f1576155f0615c0c565b5b828204905092915050565b60006156078261572c565b91506156128361572c565b9250817fffffffffffffffffffffffffffffffffffffffffffffffffffffffffffffffff048311821515161561564b5761564a615bdd565b5b828202905092915050565b60006156618261572c565b915061566c8361572c565b92508282101561567f5761567e615bdd565b5b828203905092915050565b60006156958261570c565b9050919050565b60006156a78261570c565b9050919050565b60008115159050919050565b6000819050919050565b60007fffffffff0000000000000000000000000000000000000000000000000000000082169050919050565b60006fffffffffffffffffffffffffffffffff82169050919050565b600073ffffffffffffffffffffffffffffffffffffffff82169050919050565b6000819050919050565b600067ffffffffffffffff82169050919050565b5b818110156157695761575e600082615d9c565b60018101905061574b565b5050565b6000615778826157a3565b9050919050565b600061578a826156ae565b9050919050565b600061579c826156f0565b9050919050565b60006157ae826157b5565b9050919050565b60006157c08261570c565b9050919050565b60006157d28261572c565b9050919050565b60006157e482615736565b9050919050565b6157f5838361547a565b67ffffffffffffffff81111561580e5761580d615c6a565b5b6158188254615a98565b600080601f8411601f84111715615835576158328561545a565b90505b601f831115615868576020601f85010481016020851015615854578190505b6158666020601f86010483018261574a565b505b601f8411600181146158955760008515615883578388013590505b61588d8682615aca565b8755506158ed565b601f1985168260005b828110156158c357858a0135825560018201915060208601955060208101905061589e565b878310156158e057858a01356158dc601f8a1682615b8e565b8355505b6001600289020189555050505b5050505050505050565b82818337600083830152505050565b60005b83811015615924578082015181840152602081019050615909565b83811115615933576000848401525b50505050565b600081016000830161594b818561537c565b6159568183866166fc565b50505050600181016020830161596c818561537c565b6159778183866166fc565b5050505060028101604083018061598d81615d0d565b90506159998184616759565b5050506002810160608301806159ae81615ce1565b90506159ba81846167e5565b5050505050565b6000810160008301806159d381615cf7565b90506159df8184616736565b5050506000810160208301806159f481615d0d565b9050615a00818461677c565b505050600081016040830180615a1581615d0d565b9050615a2181846167c2565b5050505050565b600081016000830180615a3a81615ccb565b9050615a4681846166d9565b505050600081016020830180615a5b81615ce1565b9050615a67818461679f565b5050505050565b6000615a798261572c565b91506000821415615a8d57615a8c615bdd565b5b600182039050919050565b60006002820490506001821680615ab057607f821691505b60208210811415615ac457615ac3615c3b565b5b50919050565b6000615ad68383615b8e565b9150826002028217905092915050565b615aef82615d23565b810181811067ffffffffffffffff82111715615b0e57615b0d615c6a565b5b80604052505050565b6000615b228261572c565b91507fffffffffffffffffffffffffffffffffffffffffffffffffffffffffffffffff821415615b5557615b54615bdd565b5b600182019050919050565b6000615b6b82615b7c565b9050919050565b6000819050919050565b6000615b8782615d75565b9050919050565b6000615b9f60001984600802615d8f565b1980831691505092915050565b6000615bb78261572c565b9150615bc28361572c565b925082615bd257615bd1615c0c565b5b828206905092915050565b7f4e487b7100000000000000000000000000000000000000000000000000000000600052601160045260246000fd5b7f4e487b7100000000000000000000000000000000000000000000000000000000600052601260045260246000fd5b7f4e487b7100000000000000000000000000000000000000000000000000000000600052602260045260246000fd5b7f4e487b7100000000000000000000000000000000000000000000000000000000600052604160045260246000fd5b6000819050919050565b6000819050919050565b6000819050919050565b6000819050919050565b6000819050919050565b60008135615cd88161682d565b80915050919050565b60008135615cee8161685b565b80915050919050565b60008135615d04816168a0565b80915050919050565b60008135615d1a816168ce565b80915050919050565b6000601f19601f8301169050919050565b60008160001b9050919050565b60008160801b9050919050565b60008160a01b9050919050565b60008160c01b9050919050565b60008160401b9050919050565b60008160601b9050919050565b600082821b905092915050565b600082821c905092915050565b615da46168e5565b615daf818484616808565b505050565b7f3400000000000000000000000000000000000000000000000000000000000000600082015250565b7f3130000000000000000000000000000000000000000000000000000000000000600082015250565b7f3135000000000000000000000000000000000000000000000000000000000000600082015250565b7f4552433732313a207472616e7366657220746f206e6f6e20455243373231526560008201527f63656976657220696d706c656d656e7465720000000000000000000000000000602082015250565b7f4f776e61626c653a206e6577206f776e657220697320746865207a65726f206160008201527f6464726573730000000000000000000000000000000000000000000000000000602082015250565b7f3136000000000000000000000000000000000000000000000000000000000000600082015250565b7f4552433732313a20746f6b656e20616c7265616479206d696e74656400000000600082015250565b7f3300000000000000000000000000000000000000000000000000000000000000600082015250565b7f4552433732313a207472616e7366657220746f20746865207a65726f2061646460008201527f7265737300000000000000000000000000000000000000000000000000000000602082015250565b7f4552433732313a20617070726f766520746f2063616c6c657200000000000000600082015250565b7f3700000000000000000000000000000000000000000000000000000000000000600082015250565b7f4552433732313a206f70657261746f7220717565727920666f72206e6f6e657860008201527f697374656e7420746f6b656e0000000000000000000000000000000000000000602082015250565b7f3134000000000000000000000000000000000000000000000000000000000000600082015250565b7f4552433732313a20617070726f76652063616c6c6572206973206e6f74206f7760008201527f6e6572206e6f7220617070726f76656420666f7220616c6c0000000000000000602082015250565b7f4552433732313a2062616c616e636520717565727920666f7220746865207a6560008201527f726f206164647265737300000000000000000000000000000000000000000000602082015250565b7f4552433732313a206f776e657220717565727920666f72206e6f6e657869737460008201527f656e7420746f6b656e0000000000000000000000000000000000000000000000602082015250565b7f3131000000000000000000000000000000000000000000000000000000000000600082015250565b7f3133000000000000000000000000000000000000000000000000000000000000600082015250565b7f496e697469616c697a61626c653a20636f6e747261637420697320616c72656160008201527f647920696e697469616c697a6564000000000000000000000000000000000000602082015250565b7f3132000000000000000000000000000000000000000000000000000000000000600082015250565b7f4552433732313a206d696e7420746f20746865207a65726f2061646472657373600082015250565b7f4552433732313a20617070726f76656420717565727920666f72206e6f6e657860008201527f697374656e7420746f6b656e0000000000000000000000000000000000000000602082015250565b7f2e6a736f6e000000000000000000000000000000000000000000000000000000600082015250565b7f4f776e61626c653a2063616c6c6572206973206e6f7420746865206f776e6572600082015250565b7f4552433732313a207472616e73666572206f6620746f6b656e2074686174206960008201527f73206e6f74206f776e0000000000000000000000000000000000000000000000602082015250565b7f3200000000000000000000000000000000000000000000000000000000000000600082015250565b7f4552433732313a20617070726f76616c20746f2063757272656e74206f776e6560008201527f7200000000000000000000000000000000000000000000000000000000000000602082015250565b50565b7f4552433732313a207472616e736665722063616c6c6572206973206e6f74206f60008201527f776e6572206e6f7220617070726f766564000000000000000000000000000000602082015250565b7f3100000000000000000000000000000000000000000000000000000000000000600082015250565b7f3500000000000000000000000000000000000000000000000000000000000000600082015250565b7f3900000000000000000000000000000000000000000000000000000000000000600082015250565b7f496e697469616c697a61626c653a20636f6e7472616374206973206e6f74206960008201527f6e697469616c697a696e67000000000000000000000000000000000000000000602082015250565b7f3600000000000000000000000000000000000000000000000000000000000000600082015250565b7f3800000000000000000000000000000000000000000000000000000000000000600082015250565b60006fffffffffffffffffffffffffffffffff61653384615d34565b9350801983169250808416831791505092915050565b600074ff000000000000000000000000000000000000000061656a84615d4e565b9350801983169250808416831791505092915050565b600068ff000000000000000061659584615d68565b9350801983169250808416831791505092915050565b600073ffffffffffffffffffffffffffffffffffffffff6165cb84615d34565b9350801983169250808416831791505092915050565b600067ffffffffffffffff6165f584615d34565b9350801983169250808416831791505092915050565b600077ffffffffffffffff0000000000000000000000000000000061662f84615d41565b9350801983169250808416831791505092915050565b60007fffffffffffffffff00000000000000000000000000000000000000000000000061667184615d5b565b9350801983169250808416831791505092915050565b6000600883026166b77fffffffffffffffffffffffffffffffffffffffffffffffffffffffffffffffff82615d82565b6166c18683615d82565b95508019841693508086168417925050509392505050565b6166e28261576d565b6166f56166ee82615c99565b83546165ab565b8255505050565b6167078383836157eb565b505050565b6167168282615939565b5050565b61672482826159c1565b5050565b6167328282615a28565b5050565b61673f82615791565b61675261674b82615cad565b8354616517565b8255505050565b616762826157d9565b61677561676e82615cc1565b83546165e1565b8255505050565b616785826157d9565b61679861679182615cc1565b835461660b565b8255505050565b6167a88261577f565b6167bb6167b482615ca3565b8354616549565b8255505050565b6167cb826157d9565b6167de6167d782615cc1565b8354616645565b8255505050565b6167ee8261577f565b6168016167fa82615ca3565b8354616580565b8255505050565b616811836157c7565b61682561681d82615cb7565b848454616687565b825550505050565b6168368161568a565b811461684157600080fd5b50565b61684d8161569c565b811461685857600080fd5b50565b616864816156ae565b811461686f57600080fd5b50565b61687b816156ba565b811461688657600080fd5b50565b616892816156c4565b811461689d57600080fd5b50565b6168a9816156f0565b81146168b457600080fd5b50565b6168c08161572c565b81146168cb57600080fd5b50565b6168d781615736565b81146168e257600080fd5b50565b60009056fe697066733a2f2f6261666b72656965716364706863666f6a63643276736c737872687a726a71723663786a6c7975656b7067687a6568666578693563337735356571a2646970667358221220d534c6c765b2c697eb82192e25d86d59d1fd8fb2e7bcbdc357ab6e44bb384ff364736f6c63430008040033",
  "linkReferences": {},
  "deployedLinkReferences": {}
}