{
  "_format": "hh-sol-artifact-1",
  "contractName": "Doodles",
  "sourceName": "contracts/Doodles.sol",
  "abi": [
    {
      "inputs": [],
      "stateMutability": "nonpayable",
      "type": "constructor"
    },
    {
      "anonymous": false,
      "inputs": [
        {
          "indexed": true,
          "internalType": "address",
          "name": "owner",
          "type": "address"
        },
        {
          "indexed": true,
          "internalType": "address",
          "name": "approved",
          "type": "address"
        },
        {
          "indexed": true,
          "internalType": "uint256",
          "name": "tokenId",
          "type": "uint256"
        }
      ],
      "name": "Approval",
      "type": "event"
    },
    {
      "anonymous": false,
      "inputs": [
        {
          "indexed": true,
          "internalType": "address",
          "name": "owner",
          "type": "address"
        },
        {
          "indexed": true,
          "internalType": "address",
          "name": "operator",
          "type": "address"
        },
        {
          "indexed": false,
          "internalType": "bool",
          "name": "approved",
          "type": "bool"
        }
      ],
      "name": "ApprovalForAll",
      "type": "event"
    },
    {
      "anonymous": false,
      "inputs": [
        {
          "indexed": true,
          "internalType": "address",
          "name": "previousOwner",
          "type": "address"
        },
        {
          "indexed": true,
          "internalType": "address",
          "name": "newOwner",
          "type": "address"
        }
      ],
      "name": "OwnershipTransferred",
      "type": "event"
    },
    {
      "anonymous": false,
      "inputs": [
        {
          "indexed": true,
          "internalType": "address",
          "name": "from",
          "type": "address"
        },
        {
          "indexed": true,
          "internalType": "address",
          "name": "to",
          "type": "address"
        },
        {
          "indexed": true,
          "internalType": "uint256",
          "name": "tokenId",
          "type": "uint256"
        }
      ],
      "name": "Transfer",
      "type": "event"
    },
    {
      "inputs": [],
      "name": "MAX_PUBLIC_MINT",
      "outputs": [
        {
          "internalType": "uint256",
          "name": "",
          "type": "uint256"
        }
      ],
      "stateMutability": "view",
      "type": "function"
    },
    {
      "inputs": [],
      "name": "MAX_SUPPLY",
      "outputs": [
        {
          "internalType": "uint256",
          "name": "",
          "type": "uint256"
        }
      ],
      "stateMutability": "view",
      "type": "function"
    },
    {
      "inputs": [],
      "name": "PRICE_PER_TOKEN",
      "outputs": [
        {
          "internalType": "uint256",
          "name": "",
          "type": "uint256"
        }
      ],
      "stateMutability": "view",
      "type": "function"
    },
    {
      "inputs": [],
      "name": "PROVENANCE",
      "outputs": [
        {
          "internalType": "string",
          "name": "",
          "type": "string"
        }
      ],
      "stateMutability": "view",
      "type": "function"
    },
    {
      "inputs": [
        {
          "internalType": "address",
          "name": "to",
          "type": "address"
        },
        {
          "internalType": "uint256",
          "name": "tokenId",
          "type": "uint256"
        }
      ],
      "name": "approve",
      "outputs": [],
      "stateMutability": "nonpayable",
      "type": "function"
    },
    {
      "inputs": [
        {
          "internalType": "address",
          "name": "owner",
          "type": "address"
        }
      ],
      "name": "balanceOf",
      "outputs": [
        {
          "internalType": "uint256",
          "name": "",
          "type": "uint256"
        }
      ],
      "stateMutability": "view",
      "type": "function"
    },
    {
      "inputs": [
        {
          "internalType": "uint256",
          "name": "tokenId",
          "type": "uint256"
        }
      ],
      "name": "getApproved",
      "outputs": [
        {
          "internalType": "address",
          "name": "",
          "type": "address"
        }
      ],
      "stateMutability": "view",
      "type": "function"
    },
    {
      "inputs": [],
      "name": "isAllowListActive",
      "outputs": [
        {
          "internalType": "bool",
          "name": "",
          "type": "bool"
        }
      ],
      "stateMutability": "view",
      "type": "function"
    },
    {
      "inputs": [
        {
          "internalType": "address",
          "name": "owner",
          "type": "address"
        },
        {
          "internalType": "address",
          "name": "operator",
          "type": "address"
        }
      ],
      "name": "isApprovedForAll",
      "outputs": [
        {
          "internalType": "bool",
          "name": "",
          "type": "bool"
        }
      ],
      "stateMutability": "view",
      "type": "function"
    },
    {
      "inputs": [
        {
          "internalType": "uint256",
          "name": "numberOfTokens",
          "type": "uint256"
        }
      ],
      "name": "mint",
      "outputs": [],
      "stateMutability": "payable",
      "type": "function"
    },
    {
      "inputs": [
        {
          "internalType": "uint8",
          "name": "numberOfTokens",
          "type": "uint8"
        }
      ],
      "name": "mintAllowList",
      "outputs": [],
      "stateMutability": "payable",
      "type": "function"
    },
    {
      "inputs": [],
      "name": "name",
      "outputs": [
        {
          "internalType": "string",
          "name": "",
          "type": "string"
        }
      ],
      "stateMutability": "view",
      "type": "function"
    },
    {
      "inputs": [
        {
          "internalType": "address",
          "name": "addr",
          "type": "address"
        }
      ],
      "name": "numAvailableToMint",
      "outputs": [
        {
          "internalType": "uint8",
          "name": "",
          "type": "uint8"
        }
      ],
      "stateMutability": "view",
      "type": "function"
    },
    {
      "inputs": [],
      "name": "owner",
      "outputs": [
        {
          "internalType": "address",
          "name": "",
          "type": "address"
        }
      ],
      "stateMutability": "view",
      "type": "function"
    },
    {
      "inputs": [
        {
          "internalType": "uint256",
          "name": "tokenId",
          "type": "uint256"
        }
      ],
      "name": "ownerOf",
      "outputs": [
        {
          "internalType": "address",
          "name": "",
          "type": "address"
        }
      ],
      "stateMutability": "view",
      "type": "function"
    },
    {
      "inputs": [],
      "name": "renounceOwnership",
      "outputs": [],
      "stateMutability": "nonpayable",
      "type": "function"
    },
    {
      "inputs": [
        {
          "internalType": "uint256",
          "name": "n",
          "type": "uint256"
        }
      ],
      "name": "reserve",
      "outputs": [],
      "stateMutability": "nonpayable",
      "type": "function"
    },
    {
      "inputs": [
        {
          "internalType": "address",
          "name": "from",
          "type": "address"
        },
        {
          "internalType": "address",
          "name": "to",
          "type": "address"
        },
        {
          "internalType": "uint256",
          "name": "tokenId",
          "type": "uint256"
        }
      ],
      "name": "safeTransferFrom",
      "outputs": [],
      "stateMutability": "nonpayable",
      "type": "function"
    },
    {
      "inputs": [
        {
          "internalType": "address",
          "name": "from",
          "type": "address"
        },
        {
          "internalType": "address",
          "name": "to",
          "type": "address"
        },
        {
          "internalType": "uint256",
          "name": "tokenId",
          "type": "uint256"
        },
        {
          "internalType": "bytes",
          "name": "_data",
          "type": "bytes"
        }
      ],
      "name": "safeTransferFrom",
      "outputs": [],
      "stateMutability": "nonpayable",
      "type": "function"
    },
    {
      "inputs": [],
      "name": "saleIsActive",
      "outputs": [
        {
          "internalType": "bool",
          "name": "",
          "type": "bool"
        }
      ],
      "stateMutability": "view",
      "type": "function"
    },
    {
      "inputs": [
        {
          "internalType": "address[]",
          "name": "addresses",
          "type": "address[]"
        },
        {
          "internalType": "uint8",
          "name": "numAllowedToMint",
          "type": "uint8"
        }
      ],
      "name": "setAllowList",
      "outputs": [],
      "stateMutability": "nonpayable",
      "type": "function"
    },
    {
      "inputs": [
        {
          "internalType": "address",
          "name": "operator",
          "type": "address"
        },
        {
          "internalType": "bool",
          "name": "approved",
          "type": "bool"
        }
      ],
      "name": "setApprovalForAll",
      "outputs": [],
      "stateMutability": "nonpayable",
      "type": "function"
    },
    {
      "inputs": [
        {
          "internalType": "string",
          "name": "baseURI_",
          "type": "string"
        }
      ],
      "name": "setBaseURI",
      "outputs": [],
      "stateMutability": "nonpayable",
      "type": "function"
    },
    {
      "inputs": [
        {
          "internalType": "bool",
          "name": "_isAllowListActive",
          "type": "bool"
        }
      ],
      "name": "setIsAllowListActive",
      "outputs": [],
      "stateMutability": "nonpayable",
      "type": "function"
    },
    {
      "inputs": [
        {
          "internalType": "string",
          "name": "provenance",
          "type": "string"
        }
      ],
      "name": "setProvenance",
      "outputs": [],
      "stateMutability": "nonpayable",
      "type": "function"
    },
    {
      "inputs": [
        {
          "internalType": "bool",
          "name": "newState",
          "type": "bool"
        }
      ],
      "name": "setSaleState",
      "outputs": [],
      "stateMutability": "nonpayable",
      "type": "function"
    },
    {
      "inputs": [
        {
          "internalType": "bytes4",
          "name": "interfaceId",
          "type": "bytes4"
        }
      ],
      "name": "supportsInterface",
      "outputs": [
        {
          "internalType": "bool",
          "name": "",
          "type": "bool"
        }
      ],
      "stateMutability": "view",
      "type": "function"
    },
    {
      "inputs": [],
      "name": "symbol",
      "outputs": [
        {
          "internalType": "string",
          "name": "",
          "type": "string"
        }
      ],
      "stateMutability": "view",
      "type": "function"
    },
    {
      "inputs": [
        {
          "internalType": "uint256",
          "name": "index",
          "type": "uint256"
        }
      ],
      "name": "tokenByIndex",
      "outputs": [
        {
          "internalType": "uint256",
          "name": "",
          "type": "uint256"
        }
      ],
      "stateMutability": "view",
      "type": "function"
    },
    {
      "inputs": [
        {
          "internalType": "address",
          "name": "owner",
          "type": "address"
        },
        {
          "internalType": "uint256",
          "name": "index",
          "type": "uint256"
        }
      ],
      "name": "tokenOfOwnerByIndex",
      "outputs": [
        {
          "internalType": "uint256",
          "name": "",
          "type": "uint256"
        }
      ],
      "stateMutability": "view",
      "type": "function"
    },
    {
      "inputs": [
        {
          "internalType": "uint256",
          "name": "tokenId",
          "type": "uint256"
        }
      ],
      "name": "tokenURI",
      "outputs": [
        {
          "internalType": "string",
          "name": "",
          "type": "string"
        }
      ],
      "stateMutability": "view",
      "type": "function"
    },
    {
      "inputs": [],
      "name": "totalSupply",
      "outputs": [
        {
          "internalType": "uint256",
          "name": "",
          "type": "uint256"
        }
      ],
      "stateMutability": "view",
      "type": "function"
    },
    {
      "inputs": [
        {
          "internalType": "address",
          "name": "from",
          "type": "address"
        },
        {
          "internalType": "address",
          "name": "to",
          "type": "address"
        },
        {
          "internalType": "uint256",
          "name": "tokenId",
          "type": "uint256"
        }
      ],
      "name": "transferFrom",
      "outputs": [],
      "stateMutability": "nonpayable",
      "type": "function"
    },
    {
      "inputs": [
        {
          "internalType": "address",
          "name": "newOwner",
          "type": "address"
        }
      ],
      "name": "transferOwnership",
      "outputs": [],
      "stateMutability": "nonpayable",
      "type": "function"
    },
    {
      "inputs": [],
      "name": "withdraw",
      "outputs": [],
      "stateMutability": "nonpayable",
      "type": "function"
    }
  ],
  "bytecode": "0x60806040526000600c60006101000a81548160ff0219169083151502179055506000600e60006101000a81548160ff0219169083151502179055503480156200004757600080fd5b506040518060400160405280600d81526020017f4c657070792026204672656e73000000000000000000000000000000000000008152506040518060400160405280600781526020017f4c505946524e53000000000000000000000000000000000000000000000000008152508160009080519060200190620000cc929190620001dc565b508060019080519060200190620000e5929190620001dc565b50505062000108620000fc6200010e60201b60201c565b6200011660201b60201c565b620002f1565b600033905090565b6000600a60009054906101000a900473ffffffffffffffffffffffffffffffffffffffff16905081600a60006101000a81548173ffffffffffffffffffffffffffffffffffffffff021916908373ffffffffffffffffffffffffffffffffffffffff1602179055508173ffffffffffffffffffffffffffffffffffffffff168173ffffffffffffffffffffffffffffffffffffffff167f8be0079c531659141344cd1fd0a4f28419497f9722a3daafe3b4186f6b6457e060405160405180910390a35050565b828054620001ea906200028c565b90600052602060002090601f0160209004810192826200020e57600085556200025a565b82601f106200022957805160ff19168380011785556200025a565b828001600101855582156200025a579182015b82811115620002595782518255916020019190600101906200023c565b5b5090506200026991906200026d565b5090565b5b80821115620002885760008160009055506001016200026e565b5090565b60006002820490506001821680620002a557607f821691505b60208210811415620002bc57620002bb620002c2565b5b50919050565b7f4e487b7100000000000000000000000000000000000000000000000000000000600052602260045260246000fd5b61482e80620003016000396000f3fe6080604052600436106102045760003560e01c8063715018a611610118578063b88d4fde116100a0578063ddff5b1c1161006f578063ddff5b1c14610758578063e985e9c514610774578063eb8d2444146107b1578063f2fde38b146107dc578063ffe630b51461080557610204565b8063b88d4fde1461068c578063c04a2836146106b5578063c4e37095146106f2578063c87b56dd1461071b57610204565b8063833b9499116100e7578063833b9499146105c65780638da5cb5b146105f157806395d89b411461061c578063a0712d6814610647578063a22cb4651461066357610204565b8063715018a614610534578063718bc4af1461054b578063819b25ba146105745780638295784d1461059d57610204565b806332cb6b0c1161019b57806355f804b31161016a57806355f804b31461043b5780636352211e146104645780636373a6b1146104a157806365f13097146104cc57806370a08231146104f757610204565b806332cb6b0c146103935780633ccfd60b146103be57806342842e0e146103d55780634f6ccce7146103fe57610204565b806318160ddd116101d757806318160ddd146102d757806323b872dd1461030257806329fc6bae1461032b5780632f745c591461035657610204565b806301ffc9a71461020957806306fdde0314610246578063081812fc14610271578063095ea7b3146102ae575b600080fd5b34801561021557600080fd5b50610230600480360381019061022b91906133c3565b61082e565b60405161023d919061395a565b60405180910390f35b34801561025257600080fd5b5061025b610840565b6040516102689190613975565b60405180910390f35b34801561027d57600080fd5b5061029860048036038101906102939190613456565b6108d2565b6040516102a591906138f3565b60405180910390f35b3480156102ba57600080fd5b506102d560048036038101906102d09190613306565b610957565b005b3480156102e357600080fd5b506102ec610a6f565b6040516102f99190613c97565b60405180910390f35b34801561030e57600080fd5b5061032960048036038101906103249190613200565b610a7c565b005b34801561033757600080fd5b50610340610adc565b60405161034d919061395a565b60405180910390f35b34801561036257600080fd5b5061037d60048036038101906103789190613306565b610aef565b60405161038a9190613c97565b60405180910390f35b34801561039f57600080fd5b506103a8610b94565b6040516103b59190613c97565b60405180910390f35b3480156103ca57600080fd5b506103d3610b9a565b005b3480156103e157600080fd5b506103fc60048036038101906103f79190613200565b610c65565b005b34801561040a57600080fd5b5061042560048036038101906104209190613456565b610c85565b6040516104329190613c97565b60405180910390f35b34801561044757600080fd5b50610462600480360381019061045d9190613415565b610d1c565b005b34801561047057600080fd5b5061048b60048036038101906104869190613456565b610db2565b60405161049891906138f3565b60405180910390f35b3480156104ad57600080fd5b506104b6610e64565b6040516104c39190613975565b60405180910390f35b3480156104d857600080fd5b506104e1610ef2565b6040516104ee9190613c97565b60405180910390f35b34801561050357600080fd5b5061051e6004803603810190610519919061319b565b610ef7565b60405161052b9190613c97565b60405180910390f35b34801561054057600080fd5b50610549610faf565b005b34801561055757600080fd5b50610572600480360381019061056d919061339a565b611037565b005b34801561058057600080fd5b5061059b60048036038101906105969190613456565b6110d0565b005b3480156105a957600080fd5b506105c460048036038101906105bf9190613342565b611190565b005b3480156105d257600080fd5b506105db6112d8565b6040516105e89190613c97565b60405180910390f35b3480156105fd57600080fd5b506106066112e3565b60405161061391906138f3565b60405180910390f35b34801561062857600080fd5b5061063161130d565b60405161063e9190613975565b60405180910390f35b610661600480360381019061065c9190613456565b61139f565b005b34801561066f57600080fd5b5061068a600480360381019061068591906132ca565b61151b565b005b34801561069857600080fd5b506106b360048036038101906106ae919061324f565b611531565b005b3480156106c157600080fd5b506106dc60048036038101906106d7919061319b565b611593565b6040516106e99190613cb2565b60405180910390f35b3480156106fe57600080fd5b506107196004803603810190610714919061339a565b6115e9565b005b34801561072757600080fd5b50610742600480360381019061073d9190613456565b611682565b60405161074f9190613975565b60405180910390f35b610772600480360381019061076d919061347f565b611729565b005b34801561078057600080fd5b5061079b600480360381019061079691906131c4565b611972565b6040516107a8919061395a565b60405180910390f35b3480156107bd57600080fd5b506107c6611a06565b6040516107d3919061395a565b60405180910390f35b3480156107e857600080fd5b5061080360048036038101906107fe919061319b565b611a19565b005b34801561081157600080fd5b5061082c60048036038101906108279190613415565b611b11565b005b600061083982611ba7565b9050919050565b60606000805461084f90613fa3565b80601f016020809104026020016040519081016040528092919081815260200182805461087b90613fa3565b80156108c85780601f1061089d576101008083540402835291602001916108c8565b820191906000526020600020905b8154815290600101906020018083116108ab57829003601f168201915b5050505050905090565b60006108dd82611c21565b61091c576040517f08c379a000000000000000000000000000000000000000000000000000000000815260040161091390613b57565b60405180910390fd5b6004600083815260200190815260200160002060009054906101000a900473ffffffffffffffffffffffffffffffffffffffff169050919050565b600061096282610db2565b90508073ffffffffffffffffffffffffffffffffffffffff168373ffffffffffffffffffffffffffffffffffffffff1614156109d3576040517f08c379a00000000000000000000000000000000000000000000000000000000081526004016109ca90613bd7565b60405180910390fd5b8073ffffffffffffffffffffffffffffffffffffffff166109f2611c8d565b73ffffffffffffffffffffffffffffffffffffffff161480610a215750610a2081610a1b611c8d565b611972565b5b610a60576040517f08c379a0000000000000000000000000000000000000000000000000000000008152600401610a5790613ad7565b60405180910390fd5b610a6a8383611c95565b505050565b6000600880549050905090565b610a8d610a87611c8d565b82611d4e565b610acc576040517f08c379a0000000000000000000000000000000000000000000000000000000008152600401610ac390613c37565b60405180910390fd5b610ad7838383611e2c565b505050565b600e60009054906101000a900460ff1681565b6000610afa83610ef7565b8210610b3b576040517f08c379a0000000000000000000000000000000000000000000000000000000008152600401610b3290613997565b60405180910390fd5b600660008473ffffffffffffffffffffffffffffffffffffffff1673ffffffffffffffffffffffffffffffffffffffff168152602001908152602001600020600083815260200190815260200160002054905092915050565b61271081565b610ba2611c8d565b73ffffffffffffffffffffffffffffffffffffffff16610bc06112e3565b73ffffffffffffffffffffffffffffffffffffffff1614610c16576040517f08c379a0000000000000000000000000000000000000000000000000000000008152600401610c0d90613b77565b60405180910390fd5b60004790503373ffffffffffffffffffffffffffffffffffffffff166108fc829081150290604051600060405180830381858888f19350505050158015610c61573d6000803e3d6000fd5b5050565b610c8083838360405180602001604052806000815250611531565b505050565b6000610c8f610a6f565b8210610cd0576040517f08c379a0000000000000000000000000000000000000000000000000000000008152600401610cc790613c57565b60405180910390fd5b60088281548110610d0a577f4e487b7100000000000000000000000000000000000000000000000000000000600052603260045260246000fd5b90600052602060002001549050919050565b610d24611c8d565b73ffffffffffffffffffffffffffffffffffffffff16610d426112e3565b73ffffffffffffffffffffffffffffffffffffffff1614610d98576040517f08c379a0000000000000000000000000000000000000000000000000000000008152600401610d8f90613b77565b60405180910390fd5b80600d9080519060200190610dae929190612f60565b5050565b6000806002600084815260200190815260200160002060009054906101000a900473ffffffffffffffffffffffffffffffffffffffff169050600073ffffffffffffffffffffffffffffffffffffffff168173ffffffffffffffffffffffffffffffffffffffff161415610e5b576040517f08c379a0000000000000000000000000000000000000000000000000000000008152600401610e5290613b17565b60405180910390fd5b80915050919050565b600b8054610e7190613fa3565b80601f0160208091040260200160405190810160405280929190818152602001828054610e9d90613fa3565b8015610eea5780601f10610ebf57610100808354040283529160200191610eea565b820191906000526020600020905b815481529060010190602001808311610ecd57829003601f168201915b505050505081565b600581565b60008073ffffffffffffffffffffffffffffffffffffffff168273ffffffffffffffffffffffffffffffffffffffff161415610f68576040517f08c379a0000000000000000000000000000000000000000000000000000000008152600401610f5f90613af7565b60405180910390fd5b600360008373ffffffffffffffffffffffffffffffffffffffff1673ffffffffffffffffffffffffffffffffffffffff168152602001908152602001600020549050919050565b610fb7611c8d565b73ffffffffffffffffffffffffffffffffffffffff16610fd56112e3565b73ffffffffffffffffffffffffffffffffffffffff161461102b576040517f08c379a000000000000000000000000000000000000000000000000000000000815260040161102290613b77565b60405180910390fd5b6110356000612093565b565b61103f611c8d565b73ffffffffffffffffffffffffffffffffffffffff1661105d6112e3565b73ffffffffffffffffffffffffffffffffffffffff16146110b3576040517f08c379a00000000000000000000000000000000000000000000000000000000081526004016110aa90613b77565b60405180910390fd5b80600e60006101000a81548160ff02191690831515021790555050565b6110d8611c8d565b73ffffffffffffffffffffffffffffffffffffffff166110f66112e3565b73ffffffffffffffffffffffffffffffffffffffff161461114c576040517f08c379a000000000000000000000000000000000000000000000000000000000815260040161114390613b77565b60405180910390fd5b6000611156610a6f565b905060005b8281101561118b576111783382846111739190613d97565b612159565b808061118390614006565b91505061115b565b505050565b611198611c8d565b73ffffffffffffffffffffffffffffffffffffffff166111b66112e3565b73ffffffffffffffffffffffffffffffffffffffff161461120c576040517f08c379a000000000000000000000000000000000000000000000000000000000815260040161120390613b77565b60405180910390fd5b60005b838390508110156112d25781600f6000868685818110611258577f4e487b7100000000000000000000000000000000000000000000000000000000600052603260045260246000fd5b905060200201602081019061126d919061319b565b73ffffffffffffffffffffffffffffffffffffffff1673ffffffffffffffffffffffffffffffffffffffff16815260200190815260200160002060006101000a81548160ff021916908360ff16021790555080806112ca90614006565b91505061120f565b50505050565b6658d15e1762800081565b6000600a60009054906101000a900473ffffffffffffffffffffffffffffffffffffffff16905090565b60606001805461131c90613fa3565b80601f016020809104026020016040519081016040528092919081815260200182805461134890613fa3565b80156113955780601f1061136a57610100808354040283529160200191611395565b820191906000526020600020905b81548152906001019060200180831161137857829003601f168201915b5050505050905090565b60006113a9610a6f565b9050600c60009054906101000a900460ff166113fa576040517f08c379a00000000000000000000000000000000000000000000000000000000081526004016113f190613bb7565b60405180910390fd5b600582111561143e576040517f08c379a000000000000000000000000000000000000000000000000000000000815260040161143590613bf7565b60405180910390fd5b612710828261144d9190613d97565b111561148e576040517f08c379a0000000000000000000000000000000000000000000000000000000008152600401611485906139f7565b60405180910390fd5b34826658d15e176280006114a29190613e1e565b11156114e3576040517f08c379a00000000000000000000000000000000000000000000000000000000081526004016114da90613a97565b60405180910390fd5b60005b82811015611516576115033382846114fe9190613d97565b612159565b808061150e90614006565b9150506114e6565b505050565b61152d611526611c8d565b8383612177565b5050565b61154261153c611c8d565b83611d4e565b611581576040517f08c379a000000000000000000000000000000000000000000000000000000000815260040161157890613c37565b60405180910390fd5b61158d848484846122e4565b50505050565b6000600f60008373ffffffffffffffffffffffffffffffffffffffff1673ffffffffffffffffffffffffffffffffffffffff16815260200190815260200160002060009054906101000a900460ff169050919050565b6115f1611c8d565b73ffffffffffffffffffffffffffffffffffffffff1661160f6112e3565b73ffffffffffffffffffffffffffffffffffffffff1614611665576040517f08c379a000000000000000000000000000000000000000000000000000000000815260040161165c90613b77565b60405180910390fd5b80600c60006101000a81548160ff02191690831515021790555050565b606061168d82611c21565b6116cc576040517f08c379a00000000000000000000000000000000000000000000000000000000081526004016116c390613b97565b60405180910390fd5b60006116d6612340565b905060008151116116f65760405180602001604052806000815250611721565b80611700846123d2565b6040516020016117119291906138cf565b6040516020818303038152906040525b915050919050565b6000611733610a6f565b9050600e60009054906101000a900460ff16611784576040517f08c379a000000000000000000000000000000000000000000000000000000000815260040161177b90613c77565b60405180910390fd5b600f60003373ffffffffffffffffffffffffffffffffffffffff1673ffffffffffffffffffffffffffffffffffffffff16815260200190815260200160002060009054906101000a900460ff1660ff168260ff161115611819576040517f08c379a000000000000000000000000000000000000000000000000000000000815260040161181090613c17565b60405180910390fd5b6127108260ff168261182b9190613d97565b111561186c576040517f08c379a0000000000000000000000000000000000000000000000000000000008152600401611863906139f7565b60405180910390fd5b348260ff166658d15e176280006118839190613e1e565b11156118c4576040517f08c379a00000000000000000000000000000000000000000000000000000000081526004016118bb90613a97565b60405180910390fd5b81600f60003373ffffffffffffffffffffffffffffffffffffffff1673ffffffffffffffffffffffffffffffffffffffff16815260200190815260200160002060008282829054906101000a900460ff1661191f9190613eac565b92506101000a81548160ff021916908360ff16021790555060005b8260ff1681101561196d5761195a3382846119559190613d97565b612159565b808061196590614006565b91505061193a565b505050565b6000600560008473ffffffffffffffffffffffffffffffffffffffff1673ffffffffffffffffffffffffffffffffffffffff16815260200190815260200160002060008373ffffffffffffffffffffffffffffffffffffffff1673ffffffffffffffffffffffffffffffffffffffff16815260200190815260200160002060009054906101000a900460ff16905092915050565b600c60009054906101000a900460ff1681565b611a21611c8d565b73ffffffffffffffffffffffffffffffffffffffff16611a3f6112e3565b73ffffffffffffffffffffffffffffffffffffffff1614611a95576040517f08c379a0000000000000000000000000000000000000000000000000000000008152600401611a8c90613b77565b60405180910390fd5b600073ffffffffffffffffffffffffffffffffffffffff168173ffffffffffffffffffffffffffffffffffffffff161415611b05576040517f08c379a0000000000000000000000000000000000000000000000000000000008152600401611afc906139d7565b60405180910390fd5b611b0e81612093565b50565b611b19611c8d565b73ffffffffffffffffffffffffffffffffffffffff16611b376112e3565b73ffffffffffffffffffffffffffffffffffffffff1614611b8d576040517f08c379a0000000000000000000000000000000000000000000000000000000008152600401611b8490613b77565b60405180910390fd5b80600b9080519060200190611ba3929190612f60565b5050565b60007f780e9d63000000000000000000000000000000000000000000000000000000007bffffffffffffffffffffffffffffffffffffffffffffffffffffffff1916827bffffffffffffffffffffffffffffffffffffffffffffffffffffffff19161480611c1a5750611c198261257f565b5b9050919050565b60008073ffffffffffffffffffffffffffffffffffffffff166002600084815260200190815260200160002060009054906101000a900473ffffffffffffffffffffffffffffffffffffffff1673ffffffffffffffffffffffffffffffffffffffff1614159050919050565b600033905090565b816004600083815260200190815260200160002060006101000a81548173ffffffffffffffffffffffffffffffffffffffff021916908373ffffffffffffffffffffffffffffffffffffffff160217905550808273ffffffffffffffffffffffffffffffffffffffff16611d0883610db2565b73ffffffffffffffffffffffffffffffffffffffff167f8c5be1e5ebec7d5bd14f71427d1e84f3dd0314c0f7b2291e5b200ac8c7c3b92560405160405180910390a45050565b6000611d5982611c21565b611d98576040517f08c379a0000000000000000000000000000000000000000000000000000000008152600401611d8f90613ab7565b60405180910390fd5b6000611da383610db2565b90508073ffffffffffffffffffffffffffffffffffffffff168473ffffffffffffffffffffffffffffffffffffffff161480611e1257508373ffffffffffffffffffffffffffffffffffffffff16611dfa846108d2565b73ffffffffffffffffffffffffffffffffffffffff16145b80611e235750611e228185611972565b5b91505092915050565b8273ffffffffffffffffffffffffffffffffffffffff16611e4c82610db2565b73ffffffffffffffffffffffffffffffffffffffff1614611ea2576040517f08c379a0000000000000000000000000000000000000000000000000000000008152600401611e9990613a17565b60405180910390fd5b600073ffffffffffffffffffffffffffffffffffffffff168273ffffffffffffffffffffffffffffffffffffffff161415611f12576040517f08c379a0000000000000000000000000000000000000000000000000000000008152600401611f0990613a57565b60405180910390fd5b611f1d838383612661565b611f28600082611c95565b6001600360008573ffffffffffffffffffffffffffffffffffffffff1673ffffffffffffffffffffffffffffffffffffffff1681526020019081526020016000206000828254611f789190613e78565b925050819055506001600360008473ffffffffffffffffffffffffffffffffffffffff1673ffffffffffffffffffffffffffffffffffffffff1681526020019081526020016000206000828254611fcf9190613d97565b92505081905550816002600083815260200190815260200160002060006101000a81548173ffffffffffffffffffffffffffffffffffffffff021916908373ffffffffffffffffffffffffffffffffffffffff160217905550808273ffffffffffffffffffffffffffffffffffffffff168473ffffffffffffffffffffffffffffffffffffffff167fddf252ad1be2c89b69c2b068fc378daa952ba7f163c4a11628f55a4df523b3ef60405160405180910390a461208e838383612671565b505050565b6000600a60009054906101000a900473ffffffffffffffffffffffffffffffffffffffff16905081600a60006101000a81548173ffffffffffffffffffffffffffffffffffffffff021916908373ffffffffffffffffffffffffffffffffffffffff1602179055508173ffffffffffffffffffffffffffffffffffffffff168173ffffffffffffffffffffffffffffffffffffffff167f8be0079c531659141344cd1fd0a4f28419497f9722a3daafe3b4186f6b6457e060405160405180910390a35050565b612173828260405180602001604052806000815250612676565b5050565b8173ffffffffffffffffffffffffffffffffffffffff168373ffffffffffffffffffffffffffffffffffffffff1614156121e6576040517f08c379a00000000000000000000000000000000000000000000000000000000081526004016121dd90613a77565b60405180910390fd5b80600560008573ffffffffffffffffffffffffffffffffffffffff1673ffffffffffffffffffffffffffffffffffffffff16815260200190815260200160002060008473ffffffffffffffffffffffffffffffffffffffff1673ffffffffffffffffffffffffffffffffffffffff16815260200190815260200160002060006101000a81548160ff0219169083151502179055508173ffffffffffffffffffffffffffffffffffffffff168373ffffffffffffffffffffffffffffffffffffffff167f17307eab39ab6107e8899845ad3d59bd9653f200f220920489ca2b5937696c31836040516122d7919061395a565b60405180910390a3505050565b6122ef848484611e2c565b6122fb848484846126d1565b61233a576040517f08c379a0000000000000000000000000000000000000000000000000000000008152600401612331906139b7565b60405180910390fd5b50505050565b6060600d805461234f90613fa3565b80601f016020809104026020016040519081016040528092919081815260200182805461237b90613fa3565b80156123c85780601f1061239d576101008083540402835291602001916123c8565b820191906000526020600020905b8154815290600101906020018083116123ab57829003601f168201915b5050505050905090565b6060600082141561241a576040518060400160405280600181526020017f3000000000000000000000000000000000000000000000000000000000000000815250905061257a565b600082905060005b6000821461244c57808061243590614006565b915050600a826124459190613ded565b9150612422565b60008167ffffffffffffffff81111561248e577f4e487b7100000000000000000000000000000000000000000000000000000000600052604160045260246000fd5b6040519080825280601f01601f1916602001820160405280156124c05781602001600182028036833780820191505090505b5090505b60008514612573576001826124d99190613e78565b9150600a856124e8919061404f565b60306124f49190613d97565b60f81b818381518110612530577f4e487b7100000000000000000000000000000000000000000000000000000000600052603260045260246000fd5b60200101907effffffffffffffffffffffffffffffffffffffffffffffffffffffffffffff1916908160001a905350600a8561256c9190613ded565b94506124c4565b8093505050505b919050565b60007f80ac58cd000000000000000000000000000000000000000000000000000000007bffffffffffffffffffffffffffffffffffffffffffffffffffffffff1916827bffffffffffffffffffffffffffffffffffffffffffffffffffffffff1916148061264a57507f5b5e139f000000000000000000000000000000000000000000000000000000007bffffffffffffffffffffffffffffffffffffffffffffffffffffffff1916827bffffffffffffffffffffffffffffffffffffffffffffffffffffffff1916145b8061265a575061265982612868565b5b9050919050565b61266c8383836128d2565b505050565b505050565b61268083836129e6565b61268d60008484846126d1565b6126cc576040517f08c379a00000000000000000000000000000000000000000000000000000000081526004016126c3906139b7565b60405180910390fd5b505050565b60006126f28473ffffffffffffffffffffffffffffffffffffffff16612bc0565b1561285b578373ffffffffffffffffffffffffffffffffffffffff1663150b7a0261271b611c8d565b8786866040518563ffffffff1660e01b815260040161273d949392919061390e565b602060405180830381600087803b15801561275757600080fd5b505af192505050801561278857506040513d601f19601f8201168201806040525081019061278591906133ec565b60015b61280b573d80600081146127b8576040519150601f19603f3d011682016040523d82523d6000602084013e6127bd565b606091505b50600081511415612803576040517f08c379a00000000000000000000000000000000000000000000000000000000081526004016127fa906139b7565b60405180910390fd5b805181602001fd5b63150b7a0260e01b7bffffffffffffffffffffffffffffffffffffffffffffffffffffffff1916817bffffffffffffffffffffffffffffffffffffffffffffffffffffffff191614915050612860565b600190505b949350505050565b60007f01ffc9a7000000000000000000000000000000000000000000000000000000007bffffffffffffffffffffffffffffffffffffffffffffffffffffffff1916827bffffffffffffffffffffffffffffffffffffffffffffffffffffffff1916149050919050565b6128dd838383612be3565b600073ffffffffffffffffffffffffffffffffffffffff168373ffffffffffffffffffffffffffffffffffffffff1614156129205761291b81612be8565b61295f565b8173ffffffffffffffffffffffffffffffffffffffff168373ffffffffffffffffffffffffffffffffffffffff161461295e5761295d8382612c31565b5b5b600073ffffffffffffffffffffffffffffffffffffffff168273ffffffffffffffffffffffffffffffffffffffff1614156129a25761299d81612d9e565b6129e1565b8273ffffffffffffffffffffffffffffffffffffffff168273ffffffffffffffffffffffffffffffffffffffff16146129e0576129df8282612ee1565b5b5b505050565b600073ffffffffffffffffffffffffffffffffffffffff168273ffffffffffffffffffffffffffffffffffffffff161415612a56576040517f08c379a0000000000000000000000000000000000000000000000000000000008152600401612a4d90613b37565b60405180910390fd5b612a5f81611c21565b15612a9f576040517f08c379a0000000000000000000000000000000000000000000000000000000008152600401612a9690613a37565b60405180910390fd5b612aab60008383612661565b6001600360008473ffffffffffffffffffffffffffffffffffffffff1673ffffffffffffffffffffffffffffffffffffffff1681526020019081526020016000206000828254612afb9190613d97565b92505081905550816002600083815260200190815260200160002060006101000a81548173ffffffffffffffffffffffffffffffffffffffff021916908373ffffffffffffffffffffffffffffffffffffffff160217905550808273ffffffffffffffffffffffffffffffffffffffff16600073ffffffffffffffffffffffffffffffffffffffff167fddf252ad1be2c89b69c2b068fc378daa952ba7f163c4a11628f55a4df523b3ef60405160405180910390a4612bbc60008383612671565b5050565b6000808273ffffffffffffffffffffffffffffffffffffffff163b119050919050565b505050565b6008805490506009600083815260200190815260200160002081905550600881908060018154018082558091505060019003906000526020600020016000909190919091505550565b60006001612c3e84610ef7565b612c489190613e78565b9050600060076000848152602001908152602001600020549050818114612d2d576000600660008673ffffffffffffffffffffffffffffffffffffffff1673ffffffffffffffffffffffffffffffffffffffff168152602001908152602001600020600084815260200190815260200160002054905080600660008773ffffffffffffffffffffffffffffffffffffffff1673ffffffffffffffffffffffffffffffffffffffff168152602001908152602001600020600084815260200190815260200160002081905550816007600083815260200190815260200160002081905550505b6007600084815260200190815260200160002060009055600660008573ffffffffffffffffffffffffffffffffffffffff1673ffffffffffffffffffffffffffffffffffffffff16815260200190815260200160002060008381526020019081526020016000206000905550505050565b60006001600880549050612db29190613e78565b9050600060096000848152602001908152602001600020549050600060088381548110612e08577f4e487b7100000000000000000000000000000000000000000000000000000000600052603260045260246000fd5b906000526020600020015490508060088381548110612e50577f4e487b7100000000000000000000000000000000000000000000000000000000600052603260045260246000fd5b906000526020600020018190555081600960008381526020019081526020016000208190555060096000858152602001908152602001600020600090556008805480612ec5577f4e487b7100000000000000000000000000000000000000000000000000000000600052603160045260246000fd5b6001900381819060005260206000200160009055905550505050565b6000612eec83610ef7565b905081600660008573ffffffffffffffffffffffffffffffffffffffff1673ffffffffffffffffffffffffffffffffffffffff168152602001908152602001600020600083815260200190815260200160002081905550806007600084815260200190815260200160002081905550505050565b828054612f6c90613fa3565b90600052602060002090601f016020900481019282612f8e5760008555612fd5565b82601f10612fa757805160ff1916838001178555612fd5565b82800160010185558215612fd5579182015b82811115612fd4578251825591602001919060010190612fb9565b5b509050612fe29190612fe6565b5090565b5b80821115612fff576000816000905550600101612fe7565b5090565b600061301661301184613cf2565b613ccd565b90508281526020810184848401111561302e57600080fd5b613039848285613f61565b509392505050565b600061305461304f84613d23565b613ccd565b90508281526020810184848401111561306c57600080fd5b613077848285613f61565b509392505050565b60008135905061308e81614785565b92915050565b60008083601f8401126130a657600080fd5b8235905067ffffffffffffffff8111156130bf57600080fd5b6020830191508360208202830111156130d757600080fd5b9250929050565b6000813590506130ed8161479c565b92915050565b600081359050613102816147b3565b92915050565b600081519050613117816147b3565b92915050565b600082601f83011261312e57600080fd5b813561313e848260208601613003565b91505092915050565b600082601f83011261315857600080fd5b8135613168848260208601613041565b91505092915050565b600081359050613180816147ca565b92915050565b600081359050613195816147e1565b92915050565b6000602082840312156131ad57600080fd5b60006131bb8482850161307f565b91505092915050565b600080604083850312156131d757600080fd5b60006131e58582860161307f565b92505060206131f68582860161307f565b9150509250929050565b60008060006060848603121561321557600080fd5b60006132238682870161307f565b93505060206132348682870161307f565b925050604061324586828701613171565b9150509250925092565b6000806000806080858703121561326557600080fd5b60006132738782880161307f565b94505060206132848782880161307f565b935050604061329587828801613171565b925050606085013567ffffffffffffffff8111156132b257600080fd5b6132be8782880161311d565b91505092959194509250565b600080604083850312156132dd57600080fd5b60006132eb8582860161307f565b92505060206132fc858286016130de565b9150509250929050565b6000806040838503121561331957600080fd5b60006133278582860161307f565b925050602061333885828601613171565b9150509250929050565b60008060006040848603121561335757600080fd5b600084013567ffffffffffffffff81111561337157600080fd5b61337d86828701613094565b9350935050602061339086828701613186565b9150509250925092565b6000602082840312156133ac57600080fd5b60006133ba848285016130de565b91505092915050565b6000602082840312156133d557600080fd5b60006133e3848285016130f3565b91505092915050565b6000602082840312156133fe57600080fd5b600061340c84828501613108565b91505092915050565b60006020828403121561342757600080fd5b600082013567ffffffffffffffff81111561344157600080fd5b61344d84828501613147565b91505092915050565b60006020828403121561346857600080fd5b600061347684828501613171565b91505092915050565b60006020828403121561349157600080fd5b600061349f84828501613186565b91505092915050565b6134b181613ee0565b82525050565b6134c081613ef2565b82525050565b60006134d182613d54565b6134db8185613d6a565b93506134eb818560208601613f70565b6134f48161413c565b840191505092915050565b600061350a82613d5f565b6135148185613d7b565b9350613524818560208601613f70565b61352d8161413c565b840191505092915050565b600061354382613d5f565b61354d8185613d8c565b935061355d818560208601613f70565b80840191505092915050565b6000613576602b83613d7b565b91506135818261414d565b604082019050919050565b6000613599603283613d7b565b91506135a48261419c565b604082019050919050565b60006135bc602683613d7b565b91506135c7826141eb565b604082019050919050565b60006135df602083613d7b565b91506135ea8261423a565b602082019050919050565b6000613602602583613d7b565b915061360d82614263565b604082019050919050565b6000613625601c83613d7b565b9150613630826142b2565b602082019050919050565b6000613648602483613d7b565b9150613653826142db565b604082019050919050565b600061366b601983613d7b565b91506136768261432a565b602082019050919050565b600061368e601f83613d7b565b915061369982614353565b602082019050919050565b60006136b1602c83613d7b565b91506136bc8261437c565b604082019050919050565b60006136d4603883613d7b565b91506136df826143cb565b604082019050919050565b60006136f7602a83613d7b565b91506137028261441a565b604082019050919050565b600061371a602983613d7b565b915061372582614469565b604082019050919050565b600061373d602083613d7b565b9150613748826144b8565b602082019050919050565b6000613760602c83613d7b565b915061376b826144e1565b604082019050919050565b6000613783602083613d7b565b915061378e82614530565b602082019050919050565b60006137a6602f83613d7b565b91506137b182614559565b604082019050919050565b60006137c9602283613d7b565b91506137d4826145a8565b604082019050919050565b60006137ec602183613d7b565b91506137f7826145f7565b604082019050919050565b600061380f601b83613d7b565b915061381a82614646565b602082019050919050565b6000613832602283613d7b565b915061383d8261466f565b604082019050919050565b6000613855603183613d7b565b9150613860826146be565b604082019050919050565b6000613878602c83613d7b565b91506138838261470d565b604082019050919050565b600061389b601883613d7b565b91506138a68261475c565b602082019050919050565b6138ba81613f4a565b82525050565b6138c981613f54565b82525050565b60006138db8285613538565b91506138e78284613538565b91508190509392505050565b600060208201905061390860008301846134a8565b92915050565b600060808201905061392360008301876134a8565b61393060208301866134a8565b61393d60408301856138b1565b818103606083015261394f81846134c6565b905095945050505050565b600060208201905061396f60008301846134b7565b92915050565b6000602082019050818103600083015261398f81846134ff565b905092915050565b600060208201905081810360008301526139b081613569565b9050919050565b600060208201905081810360008301526139d08161358c565b9050919050565b600060208201905081810360008301526139f0816135af565b9050919050565b60006020820190508181036000830152613a10816135d2565b9050919050565b60006020820190508181036000830152613a30816135f5565b9050919050565b60006020820190508181036000830152613a5081613618565b9050919050565b60006020820190508181036000830152613a708161363b565b9050919050565b60006020820190508181036000830152613a908161365e565b9050919050565b60006020820190508181036000830152613ab081613681565b9050919050565b60006020820190508181036000830152613ad0816136a4565b9050919050565b60006020820190508181036000830152613af0816136c7565b9050919050565b60006020820190508181036000830152613b10816136ea565b9050919050565b60006020820190508181036000830152613b308161370d565b9050919050565b60006020820190508181036000830152613b5081613730565b9050919050565b60006020820190508181036000830152613b7081613753565b9050919050565b60006020820190508181036000830152613b9081613776565b9050919050565b60006020820190508181036000830152613bb081613799565b9050919050565b60006020820190508181036000830152613bd0816137bc565b9050919050565b60006020820190508181036000830152613bf0816137df565b9050919050565b60006020820190508181036000830152613c1081613802565b9050919050565b60006020820190508181036000830152613c3081613825565b9050919050565b60006020820190508181036000830152613c5081613848565b9050919050565b60006020820190508181036000830152613c708161386b565b9050919050565b60006020820190508181036000830152613c908161388e565b9050919050565b6000602082019050613cac60008301846138b1565b92915050565b6000602082019050613cc760008301846138c0565b92915050565b6000613cd7613ce8565b9050613ce38282613fd5565b919050565b6000604051905090565b600067ffffffffffffffff821115613d0d57613d0c61410d565b5b613d168261413c565b9050602081019050919050565b600067ffffffffffffffff821115613d3e57613d3d61410d565b5b613d478261413c565b9050602081019050919050565b600081519050919050565b600081519050919050565b600082825260208201905092915050565b600082825260208201905092915050565b600081905092915050565b6000613da282613f4a565b9150613dad83613f4a565b9250827fffffffffffffffffffffffffffffffffffffffffffffffffffffffffffffffff03821115613de257613de1614080565b5b828201905092915050565b6000613df882613f4a565b9150613e0383613f4a565b925082613e1357613e126140af565b5b828204905092915050565b6000613e2982613f4a565b9150613e3483613f4a565b9250817fffffffffffffffffffffffffffffffffffffffffffffffffffffffffffffffff0483118215151615613e6d57613e6c614080565b5b828202905092915050565b6000613e8382613f4a565b9150613e8e83613f4a565b925082821015613ea157613ea0614080565b5b828203905092915050565b6000613eb782613f54565b9150613ec283613f54565b925082821015613ed557613ed4614080565b5b828203905092915050565b6000613eeb82613f2a565b9050919050565b60008115159050919050565b60007fffffffff0000000000000000000000000000000000000000000000000000000082169050919050565b600073ffffffffffffffffffffffffffffffffffffffff82169050919050565b6000819050919050565b600060ff82169050919050565b82818337600083830152505050565b60005b83811015613f8e578082015181840152602081019050613f73565b83811115613f9d576000848401525b50505050565b60006002820490506001821680613fbb57607f821691505b60208210811415613fcf57613fce6140de565b5b50919050565b613fde8261413c565b810181811067ffffffffffffffff82111715613ffd57613ffc61410d565b5b80604052505050565b600061401182613f4a565b91507fffffffffffffffffffffffffffffffffffffffffffffffffffffffffffffffff82141561404457614043614080565b5b600182019050919050565b600061405a82613f4a565b915061406583613f4a565b925082614075576140746140af565b5b828206905092915050565b7f4e487b7100000000000000000000000000000000000000000000000000000000600052601160045260246000fd5b7f4e487b7100000000000000000000000000000000000000000000000000000000600052601260045260246000fd5b7f4e487b7100000000000000000000000000000000000000000000000000000000600052602260045260246000fd5b7f4e487b7100000000000000000000000000000000000000000000000000000000600052604160045260246000fd5b6000601f19601f8301169050919050565b7f455243373231456e756d657261626c653a206f776e657220696e646578206f7560008201527f74206f6620626f756e6473000000000000000000000000000000000000000000602082015250565b7f4552433732313a207472616e7366657220746f206e6f6e20455243373231526560008201527f63656976657220696d706c656d656e7465720000000000000000000000000000602082015250565b7f4f776e61626c653a206e6577206f776e657220697320746865207a65726f206160008201527f6464726573730000000000000000000000000000000000000000000000000000602082015250565b7f507572636861736520776f756c6420657863656564206d617820746f6b656e73600082015250565b7f4552433732313a207472616e736665722066726f6d20696e636f72726563742060008201527f6f776e6572000000000000000000000000000000000000000000000000000000602082015250565b7f4552433732313a20746f6b656e20616c7265616479206d696e74656400000000600082015250565b7f4552433732313a207472616e7366657220746f20746865207a65726f2061646460008201527f7265737300000000000000000000000000000000000000000000000000000000602082015250565b7f4552433732313a20617070726f766520746f2063616c6c657200000000000000600082015250565b7f45746865722076616c75652073656e74206973206e6f7420636f727265637400600082015250565b7f4552433732313a206f70657261746f7220717565727920666f72206e6f6e657860008201527f697374656e7420746f6b656e0000000000000000000000000000000000000000602082015250565b7f4552433732313a20617070726f76652063616c6c6572206973206e6f74206f7760008201527f6e6572206e6f7220617070726f76656420666f7220616c6c0000000000000000602082015250565b7f4552433732313a2062616c616e636520717565727920666f7220746865207a6560008201527f726f206164647265737300000000000000000000000000000000000000000000602082015250565b7f4552433732313a206f776e657220717565727920666f72206e6f6e657869737460008201527f656e7420746f6b656e0000000000000000000000000000000000000000000000602082015250565b7f4552433732313a206d696e7420746f20746865207a65726f2061646472657373600082015250565b7f4552433732313a20617070726f76656420717565727920666f72206e6f6e657860008201527f697374656e7420746f6b656e0000000000000000000000000000000000000000602082015250565b7f4f776e61626c653a2063616c6c6572206973206e6f7420746865206f776e6572600082015250565b7f4552433732314d657461646174613a2055524920717565727920666f72206e6f60008201527f6e6578697374656e7420746f6b656e0000000000000000000000000000000000602082015250565b7f53616c65206d7573742062652061637469766520746f206d696e7420746f6b6560008201527f6e73000000000000000000000000000000000000000000000000000000000000602082015250565b7f4552433732313a20617070726f76616c20746f2063757272656e74206f776e6560008201527f7200000000000000000000000000000000000000000000000000000000000000602082015250565b7f4578636565646564206d617820746f6b656e2070757263686173650000000000600082015250565b7f4578636565646564206d617820617661696c61626c6520746f2070757263686160008201527f7365000000000000000000000000000000000000000000000000000000000000602082015250565b7f4552433732313a207472616e736665722063616c6c6572206973206e6f74206f60008201527f776e6572206e6f7220617070726f766564000000000000000000000000000000602082015250565b7f455243373231456e756d657261626c653a20676c6f62616c20696e646578206f60008201527f7574206f6620626f756e64730000000000000000000000000000000000000000602082015250565b7f416c6c6f77206c697374206973206e6f74206163746976650000000000000000600082015250565b61478e81613ee0565b811461479957600080fd5b50565b6147a581613ef2565b81146147b057600080fd5b50565b6147bc81613efe565b81146147c757600080fd5b50565b6147d381613f4a565b81146147de57600080fd5b50565b6147ea81613f54565b81146147f557600080fd5b5056fea2646970667358221220536ccda3c65c8bc18f7993afa6351d318c8626b0b8a3a57900ad5f2e81540a3564736f6c63430008040033",
  "linkReferences": {},
  "deployedLinkReferences": {}
}